{"abi":[{"type":"constructor","inputs":[],"stateMutability":"nonpayable"},{"type":"function","name":"channels","inputs":[{"name":"","type":"uint256","internalType":"uint256"}],"outputs":[{"name":"","type":"address","internalType":"address"}],"stateMutability":"view"},{"type":"function","name":"createChannel","inputs":[{"name":"recipient","type":"address","internalType":"address"},{"name":"_duration","type":"uint256","internalType":"uint256"},{"name":"_tokenAddress","type":"address","internalType":"address"},{"name":"_amount","type":"uint256","internalType":"uint256"}],"outputs":[],"stateMutability":"nonpayable"},{"type":"function","name":"pricing","inputs":[{"name":"","type":"address","internalType":"address"}],"outputs":[{"name":"","type":"uint256","internalType":"uint256"}],"stateMutability":"view"},{"type":"function","name":"register","inputs":[{"name":"price","type":"uint256","internalType":"uint256"}],"outputs":[],"stateMutability":"nonpayable"},{"type":"function","name":"totalChannels","inputs":[],"outputs":[{"name":"","type":"uint256","internalType":"uint256"}],"stateMutability":"view"},{"type":"event","name":"channelCreated","inputs":[{"name":"channelId","type":"uint256","indexed":true,"internalType":"uint256"},{"name":"channelAddress","type":"address","indexed":false,"internalType":"address"},{"name":"sender","type":"address","indexed":true,"internalType":"address"},{"name":"recipient","type":"address","indexed":true,"internalType":"address"},{"name":"duration","type":"uint256","indexed":false,"internalType":"uint256"},{"name":"tokenAddress","type":"address","indexed":false,"internalType":"address"},{"name":"amount","type":"uint256","indexed":false,"internalType":"uint256"},{"name":"price","type":"uint256","indexed":false,"internalType":"uint256"},{"name":"timestamp","type":"uint256","indexed":false,"internalType":"uint256"}],"anonymous":false},{"type":"event","name":"pricingRegistered","inputs":[{"name":"recipient","type":"address","indexed":true,"internalType":"address"},{"name":"price","type":"uint256","indexed":false,"internalType":"uint256"},{"name":"timestamp","type":"uint256","indexed":false,"internalType":"uint256"}],"anonymous":false}],"bytecode":{"object":"0x6080604052348015600f57600080fd5b50604051601a90605a565b604051809103906000f0801580156035573d6000803e3d6000fd5b50600380546001600160a01b0319166001600160a01b03929092169190911790556067565b610de78061064983390190565b6105d3806100766000396000f3fe608060405234801561001057600080fd5b50600436106100575760003560e01c8063735d5fbc1461005c57806375c94d9a146100715780637734a9f6146100a4578063e5949b5d146100ad578063f207564e146100ee575b600080fd5b61006f61006a366004610323565b610101565b005b61009161007f366004610367565b60006020819052908152604090205481565b6040519081526020015b60405180910390f35b61009160025481565b6100d66100bb366004610389565b6001602052600090815260409020546001600160a01b031681565b6040516001600160a01b03909116815260200161009b565b61006f6100fc366004610389565b6102a8565b6001600160a01b038416600090815260208190526040812054600280549192610129836103a2565b909155505060035460405133916000916001600160a01b039091169061014e906102fa565b6001600160a01b039091168152602001604051809103906000f08015801561017a573d6000803e3d6000fd5b506002546040516392aa5bcb60e01b81526001600160a01b038a811660048301528581166024830152604482018a905288811660648301526084820188905260a4820187905260c48201929092529192508291908216906392aa5bcb9060e401600060405180830381600087803b1580156101f457600080fd5b505af1158015610208573d6000803e3d6000fd5b50506002805460009081526001602090815260409182902080546001600160a01b038881166001600160a01b03199092168217909255935483519485529184018d90528b811684840152606084018b9052608084018a90524260a085015291518d831695509188169350917fa3162614b8dec8594972fac85313f8db191ab428989960edd147302037f1f2b3919081900360c00190a45050505050505050565b33600081815260208181526040918290208490558151848152429181019190915282917f6c9017fcef80cb6e3717ee3f157d2c83905cf6a49b74fe1ec061b030ca2af1c7910160405180910390a25050565b6101d4806103ca83390190565b80356001600160a01b038116811461031e57600080fd5b919050565b6000806000806080858703121561033957600080fd5b61034285610307565b93506020850135925061035760408601610307565b9396929550929360600135925050565b60006020828403121561037957600080fd5b61038282610307565b9392505050565b60006020828403121561039b57600080fd5b5035919050565b6000600182016103c257634e487b7160e01b600052601160045260246000fd5b506001019056fe60a060405234801561001057600080fd5b506040516101d43803806101d483398101604081905261002f9161009a565b6001600160a01b0381166100895760405162461bcd60e51b815260206004820152601e60248201527f496e76616c696420696d706c656d656e746174696f6e20616464726573730000604482015260640160405180910390fd5b6001600160a01b03166080526100ca565b6000602082840312156100ac57600080fd5b81516001600160a01b03811681146100c357600080fd5b9392505050565b60805160ec6100e860003960008181602001526055015260ec6000f3fe608060405260043610601c5760003560e01c80635c60da1b146045575b60437f00000000000000000000000000000000000000000000000000000000000000006093565b005b348015605057600080fd5b5060777f000000000000000000000000000000000000000000000000000000000000000081565b6040516001600160a01b03909116815260200160405180910390f35b3660008037600080366000845af43d6000803e80801560b1573d6000f35b3d6000fdfea2646970667358221220731ac5c7325b40f28df5151baa1d463d47d000c84ed55addb0ddc1c276b5faa464736f6c634300081a0033a264697066735822122060e27135eab27fe4076fb80741dfd0834f1399859f5b88a493da755dfc33c3eb64736f6c634300081a00336080604052348015600f57600080fd5b50610dc88061001f6000396000f3fe608060405234801561001057600080fd5b50600436106100f55760003560e01c8063a035b1fe11610097578063dd00a9dc11610066578063dd00a9dc146101ed578063e2cee54414610200578063fa54080114610209578063fc0c546a1461021c57600080fd5b8063a035b1fe14610197578063a7bb5803146101a0578063b69ef8a8146101d1578063b6b55f25146101da57600080fd5b806367e404ce116100d357806367e404ce1461014b57806392aa5bcb1461015e5780639714378c1461017157806397aba7f91461018457600080fd5b80630e1da6c3146100fa5780634665096d1461010457806366d003ac14610120575b600080fd5b61010261022f565b005b61010d60045481565b6040519081526020015b60405180910390f35b600354610133906001600160a01b031681565b6040516001600160a01b039091168152602001610117565b600254610133906001600160a01b031681565b61010261016c366004610b02565b610380565b61010261017f366004610b6a565b6104ea565b610133610192366004610c28565b610572565b61010d60075481565b6101b36101ae366004610c6f565b6105f2565b60408051938452602084019290925260ff1690820152606001610117565b61010d60055481565b6101026101e8366004610b6a565b61066b565b6101026101fb366004610cac565b6107c0565b61010d60015481565b61010d610217366004610b6a565b610a93565b600654610133906001600160a01b031681565b60045442101561023e57600080fd5b6006546003546040516370a0823160e01b81523060048201526001600160a01b039283169263a9059cbb92169083906370a0823190602401602060405180830381865afa158015610293573d6000803e3d6000fd5b505050506040513d601f19601f820116820180604052508101906102b79190610d2f565b6040516001600160e01b031960e085901b1681526001600160a01b03909216600483015260248201526044016020604051808303816000875af1158015610302573d6000803e3d6000fd5b505050506040513d601f19601f820116820180604052508101906103269190610d48565b50600154600254600354604080519384526001600160a01b039283166020850152911682820152426060830152517f213a4d3f1e64b784b982ccc4359a57991822e3f712ce38c1a5068b5508d0ac569181900360800190a1565b600280546001600160a01b038089166001600160a01b03199283161790925560038054928a16929091169190911790556103ba8542610d71565b6004908155600680546001600160a01b0319166001600160a01b038781169182179092556002546040516323b872dd60e01b8152921692820192909252306024820152604481018590526323b872dd906064016020604051808303816000875af115801561042c573d6000803e3d6000fd5b505050506040513d601f19601f820116820180604052508101906104509190610d48565b506005839055600782905560018181556000805460ff19169091178155600254600354600454604080518681526001600160a01b039485166020820152939092169183019190915260608201526080810185905260a0810184905260c08101919091527f655f8515373f89502c525d938b13cc7ca710e30ff850db18bec02290fe49a1279060e0015b60405180910390a150505050505050565b6002546001600160a01b0316331461050157600080fd5b600454811161050f57600080fd5b6004819055600154600254600354604080519384526001600160a01b039283166020850152911690820152606081018290527f0c8645c3473b31222b51b16e03e66e919a6b6ec585b08480a717ec6f312c7ee3906080015b60405180910390a150565b600080600080610581856105f2565b6040805160008152602081018083528b905260ff8316918101919091526060810184905260808101839052929550909350915060019060a0016020604051602081039080840390855afa1580156105dc573d6000803e3d6000fd5b5050506020604051035193505050505b92915050565b6000806000835160411461064d5760405162461bcd60e51b815260206004820152601860248201527f696e76616c6964207369676e6174757265206c656e677468000000000000000060448201526064015b60405180910390fd5b50505060208101516040820151606090920151909260009190911a90565b6002546001600160a01b031633146106c55760405162461bcd60e51b815260206004820152601760248201527f4f6e6c792073656e6465722063616e206465706f7369740000000000000000006044820152606401610644565b6006546002546040516323b872dd60e01b81526001600160a01b039182166004820152306024820152604481018490529116906323b872dd906064016020604051808303816000875af1158015610720573d6000803e3d6000fd5b505050506040513d601f19601f820116820180604052508101906107449190610d48565b5080600560008282546107579190610d71565b9091555050600154600254600354600554604080519485526001600160a01b03938416602086015292909116918301919091526060820183905260808201527f94fb5f29cabb061b79ee0a3255c1dbde1a687bae78107735c17232fdc588e66b9060a001610567565b6003546001600160a01b031633146107d757600080fd5b6040516bffffffffffffffffffffffff193060601b1660208201526034810185905260548101849052600090607401604051602081830303815290604052805190602001209050600061082982610a93565b600254604080516020601f88018190048102820181019092528681529293506001600160a01b039091169161087b91849190889088908190840183828082843760009201919091525061057292505050565b6001600160a01b0316146108c55760405162461bcd60e51b8152602060048201526011602482015270496e76616c6964205369676e617475726560781b6044820152606401610644565b60065460035460405163a9059cbb60e01b81526001600160a01b0391821660048201526024810189905291169063a9059cbb906044016020604051808303816000875af115801561091a573d6000803e3d6000fd5b505050506040513d601f19601f8201168201806040525081019061093e9190610d48565b506006546040516370a0823160e01b81523060048201526000916001600160a01b0316906370a0823190602401602060405180830381865afa158015610988573d6000803e3d6000fd5b505050506040513d601f19601f820116820180604052508101906109ac9190610d2f565b90508015610a2f5760065460025460405163a9059cbb60e01b81526001600160a01b0391821660048201526024810184905291169063a9059cbb906044016020604051808303816000875af1158015610a09573d6000803e3d6000fd5b505050506040513d601f19601f82011682018060405250810190610a2d9190610d48565b505b600154600254600354604080519384526001600160a01b0392831660208501529116908201524260608201526080810188905260a081018790527f6ba809a8ecd716c24d75a3232d9c16adb1dd7371ad89ea8461f44c0928eaab659060c0016104d9565b6040517f19457468657265756d205369676e6564204d6573736167653a0a3332000000006020820152603c8101829052600090605c01604051602081830303815290604052805190602001209050919050565b80356001600160a01b0381168114610afd57600080fd5b919050565b600080600080600080600060e0888a031215610b1d57600080fd5b610b2688610ae6565b9650610b3460208901610ae6565b955060408801359450610b4960608901610ae6565b9699959850939660808101359560a0820135955060c0909101359350915050565b600060208284031215610b7c57600080fd5b5035919050565b634e487b7160e01b600052604160045260246000fd5b600082601f830112610baa57600080fd5b813567ffffffffffffffff811115610bc457610bc4610b83565b604051601f8201601f19908116603f0116810167ffffffffffffffff81118282101715610bf357610bf3610b83565b604052818152838201602001851015610c0b57600080fd5b816020850160208301376000918101602001919091529392505050565b60008060408385031215610c3b57600080fd5b82359150602083013567ffffffffffffffff811115610c5957600080fd5b610c6585828601610b99565b9150509250929050565b600060208284031215610c8157600080fd5b813567ffffffffffffffff811115610c9857600080fd5b610ca484828501610b99565b949350505050565b60008060008060608587031215610cc257600080fd5b8435935060208501359250604085013567ffffffffffffffff811115610ce757600080fd5b8501601f81018713610cf857600080fd5b803567ffffffffffffffff811115610d0f57600080fd5b876020828401011115610d2157600080fd5b949793965060200194505050565b600060208284031215610d4157600080fd5b5051919050565b600060208284031215610d5a57600080fd5b81518015158114610d6a57600080fd5b9392505050565b808201808211156105ec57634e487b7160e01b600052601160045260246000fdfea26469706673582212209f399c28e231fd298b8a81aee434729ade40059071ee74e2d56c41d908807fe064736f6c634300081a0033","linkReferences":{}},"methodIdentifiers":{"channels(uint256)":"e5949b5d","createChannel(address,uint256,address,uint256)":"735d5fbc","pricing(address)":"75c94d9a","register(uint256)":"f207564e","totalChannels()":"7734a9f6"},"id":0}