{
  "abi": [
    {
      "type": "function",
      "name": "channels",
      "inputs": [
        {
          "name": "",
          "type": "uint256",
          "internalType": "uint256"
        }
      ],
      "outputs": [
        {
          "name": "",
          "type": "address",
          "internalType": "address"
        }
      ],
      "stateMutability": "view"
    },
    {
      "type": "function",
      "name": "createChannel",
      "inputs": [
        {
          "name": "recipient",
          "type": "address",
          "internalType": "address"
        },
        {
          "name": "_duration",
          "type": "uint256",
          "internalType": "uint256"
        },
        {
          "name": "_tokenAddress",
          "type": "address",
          "internalType": "address"
        },
        {
          "name": "_amount",
          "type": "uint256",
          "internalType": "uint256"
        }
      ],
      "outputs": [],
      "stateMutability": "nonpayable"
    },
    {
      "type": "function",
      "name": "pricing",
      "inputs": [
        {
          "name": "",
          "type": "address",
          "internalType": "address"
        }
      ],
      "outputs": [
        {
          "name": "",
          "type": "uint256",
          "internalType": "uint256"
        }
      ],
      "stateMutability": "view"
    },
    {
      "type": "function",
      "name": "register",
      "inputs": [
        {
          "name": "price",
          "type": "uint256",
          "internalType": "uint256"
        }
      ],
      "outputs": [],
      "stateMutability": "nonpayable"
    },
    {
      "type": "function",
      "name": "totalChannels",
      "inputs": [],
      "outputs": [
        {
          "name": "",
          "type": "uint256",
          "internalType": "uint256"
        }
      ],
      "stateMutability": "view"
    },
    {
      "type": "event",
      "name": "channelCreated",
      "inputs": [
        {
          "name": "channelId",
          "type": "uint256",
          "indexed": true,
          "internalType": "uint256"
        },
        {
          "name": "channelAddress",
          "type": "address",
          "indexed": false,
          "internalType": "address"
        },
        {
          "name": "sender",
          "type": "address",
          "indexed": true,
          "internalType": "address"
        },
        {
          "name": "recipient",
          "type": "address",
          "indexed": true,
          "internalType": "address"
        },
        {
          "name": "duration",
          "type": "uint256",
          "indexed": false,
          "internalType": "uint256"
        },
        {
          "name": "tokenAddress",
          "type": "address",
          "indexed": false,
          "internalType": "address"
        },
        {
          "name": "amount",
          "type": "uint256",
          "indexed": false,
          "internalType": "uint256"
        },
        {
          "name": "price",
          "type": "uint256",
          "indexed": false,
          "internalType": "uint256"
        },
        {
          "name": "timestamp",
          "type": "uint256",
          "indexed": false,
          "internalType": "uint256"
        }
      ],
      "anonymous": false
    },
    {
      "type": "event",
      "name": "pricingRegistered",
      "inputs": [
        {
          "name": "recipient",
          "type": "address",
          "indexed": true,
          "internalType": "address"
        },
        {
          "name": "price",
          "type": "uint256",
          "indexed": false,
          "internalType": "uint256"
        },
        {
          "name": "timestamp",
          "type": "uint256",
          "indexed": false,
          "internalType": "uint256"
        }
      ],
      "anonymous": false
    }
  ],
  "bytecode": {
    "object": "0x6080604052348015600f57600080fd5b506106e08061001f6000396000f3fe608060405234801561001057600080fd5b50600436106100575760003560e01c8063735d5fbc1461005c57806375c94d9a146100715780637734a9f6146100a4578063e5949b5d146100ad578063f207564e146100ee575b600080fd5b61006f61006a36600461040e565b610101565b005b61009161007f366004610452565b60006020819052908152604090205481565b6040519081526020015b60405180910390f35b61009160025481565b6100d66100bb366004610474565b6001602052600090815260409020546001600160a01b031681565b6040516001600160a01b03909116815260200161009b565b61006f6100fc366004610474565b610393565b6001600160a01b0384166000908152602081905260408120546002805491926101298361048d565b90915550506040516323b872dd60e01b8152336004820181905230602483015260448201849052906001600160a01b038516906323b872dd906064016020604051808303816000875af1158015610184573d6000803e3d6000fd5b505050506040513d601f19601f820116820180604052508101906101a891906104b4565b506003546040516000916001600160a01b0316906101c5906103e5565b6001600160a01b039091168152602001604051809103906000f0801580156101f1573d6000803e3d6000fd5b5060405163095ea7b360e01b81526001600160a01b03808316600483015260248201879052919250829187169063095ea7b3906044016020604051808303816000875af1158015610246573d6000803e3d6000fd5b505050506040513d601f19601f8201168201806040525081019061026a91906104b4565b506002546040516392aa5bcb60e01b81526001600160a01b038a811660048301528581166024830152604482018a905288811660648301526084820188905260a4820187905260c4820192909252908216906392aa5bcb9060e401600060405180830381600087803b1580156102df57600080fd5b505af11580156102f3573d6000803e3d6000fd5b50506002805460009081526001602090815260409182902080546001600160a01b038881166001600160a01b03199092168217909255935483519485529184018d90528b811684840152606084018b9052608084018a90524260a085015291518d831695509188169350917fa3162614b8dec8594972fac85313f8db191ab428989960edd147302037f1f2b3919081900360c00190a45050505050505050565b33600081815260208181526040918290208490558151848152429181019190915282917f6c9017fcef80cb6e3717ee3f157d2c83905cf6a49b74fe1ec061b030ca2af1c7910160405180910390a25050565b6101d4806104d783390190565b80356001600160a01b038116811461040957600080fd5b919050565b6000806000806080858703121561042457600080fd5b61042d856103f2565b935060208501359250610442604086016103f2565b9396929550929360600135925050565b60006020828403121561046457600080fd5b61046d826103f2565b9392505050565b60006020828403121561048657600080fd5b5035919050565b6000600182016104ad57634e487b7160e01b600052601160045260246000fd5b5060010190565b6000602082840312156104c657600080fd5b8151801515811461046d57600080fdfe60a060405234801561001057600080fd5b506040516101d43803806101d483398101604081905261002f9161009a565b6001600160a01b0381166100895760405162461bcd60e51b815260206004820152601e60248201527f496e76616c696420696d706c656d656e746174696f6e20616464726573730000604482015260640160405180910390fd5b6001600160a01b03166080526100ca565b6000602082840312156100ac57600080fd5b81516001600160a01b03811681146100c357600080fd5b9392505050565b60805160ec6100e860003960008181602001526055015260ec6000f3fe608060405260043610601c5760003560e01c80635c60da1b146045575b60437f00000000000000000000000000000000000000000000000000000000000000006093565b005b348015605057600080fd5b5060777f000000000000000000000000000000000000000000000000000000000000000081565b6040516001600160a01b03909116815260200160405180910390f35b3660008037600080366000845af43d6000803e80801560b1573d6000f35b3d6000fdfea2646970667358221220731ac5c7325b40f28df5151baa1d463d47d000c84ed55addb0ddc1c276b5faa464736f6c634300081a0033a2646970667358221220b7ed06b9b85097ed394e5d26659a9eb45b5e396ec9efc28672ba9b6a05b2277d64736f6c634300081a0033",
    "linkReferences": {}
  },
  "methodIdentifiers": {
    "channels(uint256)": "e5949b5d",
    "createChannel(address,uint256,address,uint256)": "735d5fbc",
    "pricing(address)": "75c94d9a",
    "register(uint256)": "f207564e",
    "totalChannels()": "7734a9f6"
  },
  "id": 0
}