{
  "abi": [
    {
      "type": "constructor",
      "inputs": [],
      "stateMutability": "nonpayable"
    },
    {
      "type": "function",
      "name": "MAX_CHANNEL_DURATION",
      "inputs": [],
      "outputs": [
        {
          "name": "",
          "type": "uint256",
          "internalType": "uint256"
        }
      ],
      "stateMutability": "view"
    },
    {
      "type": "function",
      "name": "MINIMUM_PRICE",
      "inputs": [],
      "outputs": [
        {
          "name": "",
          "type": "uint256",
          "internalType": "uint256"
        }
      ],
      "stateMutability": "view"
    },
    {
      "type": "function",
      "name": "channels",
      "inputs": [
        {
          "name": "",
          "type": "uint256",
          "internalType": "uint256"
        }
      ],
      "outputs": [
        {
          "name": "",
          "type": "address",
          "internalType": "address"
        }
      ],
      "stateMutability": "view"
    },
    {
      "type": "function",
      "name": "createChannel",
      "inputs": [
        {
          "name": "recipient",
          "type": "address",
          "internalType": "address"
        },
        {
          "name": "_duration",
          "type": "uint256",
          "internalType": "uint256"
        },
        {
          "name": "_tokenAddress",
          "type": "address",
          "internalType": "address"
        },
        {
          "name": "_amount",
          "type": "uint256",
          "internalType": "uint256"
        }
      ],
      "outputs": [
        {
          "name": "channelId",
          "type": "uint256",
          "internalType": "uint256"
        },
        {
          "name": "channelAddress",
          "type": "address",
          "internalType": "address"
        }
      ],
      "stateMutability": "nonpayable"
    },
    {
      "type": "function",
      "name": "getChannelInfo",
      "inputs": [
        {
          "name": "channelId",
          "type": "uint256",
          "internalType": "uint256"
        }
      ],
      "outputs": [
        {
          "name": "exists",
          "type": "bool",
          "internalType": "bool"
        },
        {
          "name": "channelAddress",
          "type": "address",
          "internalType": "address"
        },
        {
          "name": "id",
          "type": "uint256",
          "internalType": "uint256"
        },
        {
          "name": "sender",
          "type": "address",
          "internalType": "address"
        },
        {
          "name": "recipient",
          "type": "address",
          "internalType": "address"
        },
        {
          "name": "expiration",
          "type": "uint256",
          "internalType": "uint256"
        },
        {
          "name": "balance",
          "type": "uint256",
          "internalType": "uint256"
        },
        {
          "name": "price",
          "type": "uint256",
          "internalType": "uint256"
        },
        {
          "name": "lastNonce",
          "type": "uint256",
          "internalType": "uint256"
        },
        {
          "name": "state",
          "type": "uint8",
          "internalType": "enum PaymentChannel.ChannelState"
        }
      ],
      "stateMutability": "view"
    },
    {
      "type": "function",
      "name": "getRecipientChannels",
      "inputs": [
        {
          "name": "recipient",
          "type": "address",
          "internalType": "address"
        }
      ],
      "outputs": [
        {
          "name": "",
          "type": "uint256[]",
          "internalType": "uint256[]"
        }
      ],
      "stateMutability": "view"
    },
    {
      "type": "function",
      "name": "getSenderChannels",
      "inputs": [
        {
          "name": "sender",
          "type": "address",
          "internalType": "address"
        }
      ],
      "outputs": [
        {
          "name": "",
          "type": "uint256[]",
          "internalType": "uint256[]"
        }
      ],
      "stateMutability": "view"
    },
    {
      "type": "function",
      "name": "isRegisteredProvider",
      "inputs": [
        {
          "name": "provider",
          "type": "address",
          "internalType": "address"
        }
      ],
      "outputs": [
        {
          "name": "",
          "type": "bool",
          "internalType": "bool"
        }
      ],
      "stateMutability": "view"
    },
    {
      "type": "function",
      "name": "paymentChannelImplementation",
      "inputs": [],
      "outputs": [
        {
          "name": "",
          "type": "address",
          "internalType": "address"
        }
      ],
      "stateMutability": "view"
    },
    {
      "type": "function",
      "name": "pricing",
      "inputs": [
        {
          "name": "",
          "type": "address",
          "internalType": "address"
        }
      ],
      "outputs": [
        {
          "name": "",
          "type": "uint256",
          "internalType": "uint256"
        }
      ],
      "stateMutability": "view"
    },
    {
      "type": "function",
      "name": "recipientChannels",
      "inputs": [
        {
          "name": "",
          "type": "address",
          "internalType": "address"
        },
        {
          "name": "",
          "type": "uint256",
          "internalType": "uint256"
        }
      ],
      "outputs": [
        {
          "name": "",
          "type": "uint256",
          "internalType": "uint256"
        }
      ],
      "stateMutability": "view"
    },
    {
      "type": "function",
      "name": "register",
      "inputs": [
        {
          "name": "price",
          "type": "uint256",
          "internalType": "uint256"
        }
      ],
      "outputs": [],
      "stateMutability": "nonpayable"
    },
    {
      "type": "function",
      "name": "senderChannels",
      "inputs": [
        {
          "name": "",
          "type": "address",
          "internalType": "address"
        },
        {
          "name": "",
          "type": "uint256",
          "internalType": "uint256"
        }
      ],
      "outputs": [
        {
          "name": "",
          "type": "uint256",
          "internalType": "uint256"
        }
      ],
      "stateMutability": "view"
    },
    {
      "type": "function",
      "name": "totalChannels",
      "inputs": [],
      "outputs": [
        {
          "name": "",
          "type": "uint256",
          "internalType": "uint256"
        }
      ],
      "stateMutability": "view"
    },
    {
      "type": "event",
      "name": "ChannelCreated",
      "inputs": [
        {
          "name": "channelId",
          "type": "uint256",
          "indexed": true,
          "internalType": "uint256"
        },
        {
          "name": "channelAddress",
          "type": "address",
          "indexed": true,
          "internalType": "address"
        },
        {
          "name": "sender",
          "type": "address",
          "indexed": true,
          "internalType": "address"
        },
        {
          "name": "recipient",
          "type": "address",
          "indexed": false,
          "internalType": "address"
        },
        {
          "name": "duration",
          "type": "uint256",
          "indexed": false,
          "internalType": "uint256"
        },
        {
          "name": "tokenAddress",
          "type": "address",
          "indexed": false,
          "internalType": "address"
        },
        {
          "name": "amount",
          "type": "uint256",
          "indexed": false,
          "internalType": "uint256"
        },
        {
          "name": "price",
          "type": "uint256",
          "indexed": false,
          "internalType": "uint256"
        },
        {
          "name": "timestamp",
          "type": "uint256",
          "indexed": false,
          "internalType": "uint256"
        }
      ],
      "anonymous": false
    },
    {
      "type": "event",
      "name": "PricingRegistered",
      "inputs": [
        {
          "name": "recipient",
          "type": "address",
          "indexed": true,
          "internalType": "address"
        },
        {
          "name": "price",
          "type": "uint256",
          "indexed": false,
          "internalType": "uint256"
        },
        {
          "name": "timestamp",
          "type": "uint256",
          "indexed": false,
          "internalType": "uint256"
        }
      ],
      "anonymous": false
    },
    {
      "type": "event",
      "name": "PricingUpdated",
      "inputs": [
        {
          "name": "recipient",
          "type": "address",
          "indexed": true,
          "internalType": "address"
        },
        {
          "name": "oldPrice",
          "type": "uint256",
          "indexed": false,
          "internalType": "uint256"
        },
        {
          "name": "newPrice",
          "type": "uint256",
          "indexed": false,
          "internalType": "uint256"
        },
        {
          "name": "timestamp",
          "type": "uint256",
          "indexed": false,
          "internalType": "uint256"
        }
      ],
      "anonymous": false
    }
  ],
  "bytecode": {
    "object": "0x60a060405234610037576100116100b1565b61001961003c565b611faa6101048239608051818181610121015261179c0152611faa90f35b610042565b60405190565b5f80fd5b634e487b7160e01b5f52604160045260245ffd5b5f0190565b61006761003c565b3d5f823e3d90fd5b60018060a01b031690565b90565b61009161008c6100969261006f565b61007a565b61006f565b90565b6100a29061007d565b90565b6100ae90610099565b90565b6100b961003c565b612e7f810181811060018060401b038211176100fe576100e18291612e7f6120ae843961005a565b03905ff080156100f9576100f4906100a5565b608052565b61005f565b61004656fe60806040526004361015610013575b6109b1565b61001d5f356100fc565b8063183adba6146100f75780631d7a4993146100f257806326dddd83146100ed57806335187665146100e857806347a1cd8a146100e357806351ca236f146100de57806362e223bb146100d95780637098f856146100d4578063735d5fbc146100cf57806375c94d9a146100ca5780637734a9f6146100c5578063d9945742146100c0578063e5949b5d146100bb5763f207564e0361000e5761097e565b610944565b610892565b610828565b6107e4565b61077c565b6106de565b6106a8565b610551565b610507565b610498565b610414565b6102f2565b61017c565b60e01c90565b60405190565b5f80fd5b5f80fd5b5f91031261011a57565b61010c565b7f000000000000000000000000000000000000000000000000000000000000000090565b60018060a01b031690565b61015790610143565b90565b6101639061014e565b9052565b919061017a905f6020850194019061015a565b565b346101ac5761018c366004610110565b6101a861019761011f565b61019f610102565b91829182610167565b0390f35b610108565b90565b6101bd816101b1565b036101c457565b5f80fd5b905035906101d5826101b4565b565b906020828203126101f0576101ed915f016101c8565b90565b61010c565b151590565b610203906101f5565b9052565b610210906101b1565b9052565b634e487b7160e01b5f52602160045260245ffd5b6003111561023257565b610214565b9061024182610228565b565b61024c90610237565b90565b61025890610243565b9052565b979593919a9998969492909a61014089019b5f8a0161027a916101fa565b602089016102879161015a565b6040880161029491610207565b606087016102a19161015a565b608086016102ae9161015a565b60a085016102bb91610207565b60c084016102c891610207565b60e083016102d591610207565b61010082016102e391610207565b610120016102f09161024f565b565b3461032f5761032b61030d6103083660046101d7565b610b57565b966103229a989a969196959295949394610102565b9a8b9a8b61025c565b0390f35b610108565b61033d8161014e565b0361034457565b5f80fd5b9050359061035582610334565b565b906020828203126103705761036d915f01610348565b90565b61010c565b5190565b60209181520190565b60200190565b610391906101b1565b9052565b906103a281602093610388565b0190565b60200190565b906103c96103c36103bc84610375565b8093610379565b92610382565b905f5b8181106103d95750505090565b9091926103f26103ec6001928651610395565b946103a6565b91019190916103cc565b6104119160208201915f8184039101526103ac565b90565b346104445761044061042f61042a366004610357565b610d5b565b610437610102565b918291826103fc565b0390f35b610108565b90565b90565b61046361045e61046892610449565b61044c565b6101b1565b90565b610475600161044f565b90565b61048061046b565b90565b9190610496905f60208501940190610207565b565b346104c8576104a8366004610110565b6104c46104b3610478565b6104bb610102565b91829182610483565b0390f35b610108565b90565b6104e46104df6104e9926104cd565b61044c565b6101b1565b90565b6104f96301e133806104d0565b90565b6105046104ec565b90565b3461053757610517366004610110565b6105336105226104fc565b61052a610102565b91829182610483565b0390f35b610108565b919061054f905f602085019401906101fa565b565b346105815761057d61056c610567366004610357565b610da3565b610574610102565b9182918261053c565b0390f35b610108565b91906040838203126105ae57806105a26105ab925f8601610348565b936020016101c8565b90565b61010c565b6105c76105c26105cc92610143565b61044c565b610143565b90565b6105d8906105b3565b90565b6105e4906105cf565b90565b906105f1906105db565b5f5260205260405f2090565b634e487b7160e01b5f52603260045260245ffd5b5490565b5f5260205f2090565b61062781610611565b82101561064157610639600191610615565b910201905f90565b6105fd565b1c90565b90565b61065d9060086106629302610646565b61064a565b90565b90610670915461064d565b90565b61067e9060036105e7565b61068781610611565b8210156106a4576106a19161069b9161061e565b90610665565b90565b5f80fd5b346106d9576106d56106c46106be366004610586565b90610673565b6106cc610102565b91829182610483565b0390f35b610108565b3461070e5761070a6106f96106f4366004610357565b610dd4565b610701610102565b918291826103fc565b0390f35b610108565b60808183031261075457610729825f8301610348565b9261075161073a84602085016101c8565b936107488160408601610348565b936060016101c8565b90565b61010c565b91602061077a92949361077360408201965f830190610207565b019061015a565b565b346107b15761079861078f366004610713565b9291909161161d565b906107ad6107a4610102565b92839283610759565b0390f35b610108565b906107c0906105db565b5f5260205260405f2090565b6107e1906107dc5f915f926107b6565b610665565b90565b34610814576108106107ff6107fa366004610357565b6107cc565b610807610102565b91829182610483565b0390f35b610108565b61082560045f90610665565b90565b3461085857610838366004610110565b610854610843610819565b61084b610102565b91829182610483565b0390f35b610108565b6108689060026105e7565b61087181610611565b82101561088e5761088b916108859161061e565b90610665565b90565b5f80fd5b346108c3576108bf6108ae6108a8366004610586565b9061085d565b6108b6610102565b91829182610483565b0390f35b610108565b6108dc6108d76108e1926101b1565b61044c565b6101b1565b90565b906108ee906108c8565b5f5260205260405f2090565b60018060a01b031690565b61091590600861091a9302610646565b6108fa565b90565b906109289154610905565b90565b6109419061093c6001915f926108e4565b61091d565b90565b346109745761097061095f61095a3660046101d7565b61092b565b610967610102565b91829182610167565b0390f35b610108565b5f0190565b346109ac576109966109913660046101d7565b611b20565b61099e610102565b806109a881610979565b0390f35b610108565b5f80fd5b5f90565b5f90565b5f90565b5f90565b5f1c90565b6109d66109db916109c5565b6108fa565b90565b6109e890546109ca565b90565b90565b610a026109fd610a07926109eb565b61044c565b610143565b90565b610a13906109ee565b90565b610a1f906105b3565b90565b610a2b90610a16565b90565b610a37906105cf565b90565b5f80fd5b601f801991011690565b634e487b7160e01b5f52604160045260245ffd5b90610a6690610a3e565b810190811067ffffffffffffffff821117610a8057604052565b610a48565b60e01b90565b90505190610a98826101b4565b565b90505190610aa782610334565b565b60031115610ab357565b5f80fd5b90505190610ac482610aa9565b565b919061010083820312610b4257610adf815f8501610a8b565b92610aed8260208301610a9a565b92610afb8360408401610a9a565b92610b098160608501610a8b565b92610b178260808301610a8b565b92610b3f610b288460a08501610a8b565b93610b368160c08601610a8b565b9360e001610ab7565b90565b61010c565b610b4f610102565b3d5f823e3d90fd5b610b5f6109b5565b50610b686109b9565b50610b716109bd565b610b796109b9565b610b816109b9565b610b896109bd565b610b916109bd565b610b996109bd565b610ba16109bd565b610bbc610bb7610baf6109c1565b9960016108e4565b6109de565b9788610bd8610bd2610bcd5f610a0a565b61014e565b9161014e565b1415998a610be3575b565b975050505050505050610c19610100610c03610bfe85610a22565b610a2e565b6330d281e090610c11610102565b938492610a85565b82528180610c2960048201610979565b03915afa908115610c8f575f80808080808080919395979092949698610c58575b509091929394959697610be1565b9650505050505050610c8291506101003d8111610c88575b610c7a8183610a5c565b810190610ac6565b5f610c4a565b503d610c70565b610b47565b606090565b60209181520190565b610cae610cb3916109c5565b61064a565b90565b610cc09054610ca2565b90565b60010190565b90610ce6610ce0610cd984610611565b8093610c99565b92610615565b905f5b818110610cf65750505090565b909192610d16610d10600192610d0b87610cb6565b610395565b94610cc3565b9101919091610ce9565b90610d2a91610cc9565b90565b90610d4d610d4692610d3d610102565b93848092610d20565b0383610a5c565b565b610d5890610d2d565b90565b610d72610d7791610d6a610c94565b5060036105e7565b610d4f565b90565b610d849054610ca2565b90565b610d9b610d96610da0926109eb565b61044c565b6101b1565b90565b610db9610dbe91610db26109b5565b505f6107b6565b610d7a565b610dd0610dca5f610d87565b916101b1565b1190565b610deb610df091610de3610c94565b5060026105e7565b610d4f565b90565b60209181520190565b60207f7420616464726573730000000000000000000000000000000000000000000000917f4368616e6e656c466163746f72793a20496e76616c696420726563697069656e5f8201520152565b610e566029604092610df3565b610e5f81610dfc565b0190565b610e789060208101905f818303910152610e49565b90565b15610e8257565b610e8a610102565b62461bcd60e51b815280610ea060048201610e63565b0390fd5b60207f6472657373000000000000000000000000000000000000000000000000000000917f4368616e6e656c466163746f72793a20496e76616c696420746f6b656e2061645f8201520152565b610efe6025604092610df3565b610f0781610ea4565b0190565b610f209060208101905f818303910152610ef1565b90565b15610f2a57565b610f32610102565b62461bcd60e51b815280610f4860048201610f0b565b0390fd5b60207f726561746572207468616e203000000000000000000000000000000000000000917f4368616e6e656c466163746f72793a20416d6f756e74206d75737420626520675f8201520152565b610fa6602d604092610df3565b610faf81610f4c565b0190565b610fc89060208101905f818303910152610f99565b90565b15610fd257565b610fda610102565b62461bcd60e51b815280610ff060048201610fb3565b0390fd5b5f7f4368616e6e656c466163746f72793a20496e76616c6964206475726174696f6e910152565b61102760208092610df3565b61103081610ff4565b0190565b6110499060208101905f81830391015261101b565b90565b1561105357565b61105b610102565b62461bcd60e51b81528061107160048201611034565b0390fd5b60207f6769737465726564000000000000000000000000000000000000000000000000917f4368616e6e656c466163746f72793a20526563697069656e74206e6f742072655f8201520152565b6110cf6028604092610df3565b6110d881611075565b0190565b6110f19060208101905f8183039101526110c2565b90565b156110fb57565b611103610102565b62461bcd60e51b815280611119600482016110dc565b0390fd5b60207f20726563697069656e7400000000000000000000000000000000000000000000917f4368616e6e656c466163746f72793a2053656e6465722063616e6e6f742062655f8201520152565b611177602a604092610df3565b6111808161111d565b0190565b6111999060208101905f81830391015261116a565b90565b156111a357565b6111ab610102565b62461bcd60e51b8152806111c160048201611184565b0390fd5b634e487b7160e01b5f52601160045260245ffd5b6111e2906101b1565b5f1981146111f05760010190565b6111c5565b5f1b90565b906112065f19916111f5565b9181191691161790565b90565b9061122861122361122f926108c8565b611210565b82546111fa565b9055565b61123c906105b3565b90565b61124890611233565b90565b611254906105cf565b90565b611260906105cf565b90565b61126c816101f5565b0361127357565b5f80fd5b9050519061128482611263565b565b9060208282031261129f5761129c915f01611277565b90565b61010c565b6040906112cd6112d494969593966112c360608401985f85019061015a565b602083019061015a565b0190610207565b565b60207f61696c6564000000000000000000000000000000000000000000000000000000917f4368616e6e656c466163746f72793a20546f6b656e207472616e7366657220665f8201520152565b6113306025604092610df3565b611339816112d6565b0190565b6113529060208101905f818303910152611323565b90565b1561135c57565b611364610102565b62461bcd60e51b81528061137a6004820161133d565b0390fd5b611387906105cf565b90565b9160206113ab9294936113a460408201965f83019061015a565b0190610207565b565b60207f61696c6564000000000000000000000000000000000000000000000000000000917f4368616e6e656c466163746f72793a20546f6b656e20617070726f76616c20665f8201520152565b6114076025604092610df3565b611410816113ad565b0190565b6114299060208101905f8183039101526113fa565b90565b1561143357565b61143b610102565b62461bcd60e51b81528061145160048201611414565b0390fd5b5f91031261145f57565b61010c565b949290979695939160e08601985f870161147d9161015a565b6020860161148a9161015a565b6040850161149791610207565b606084016114a49161015a565b608083016114b191610207565b60a082016114be91610207565b60c0016114ca91610207565b565b906114dd60018060a01b03916111f5565b9181191691161790565b90565b906114ff6114fa611506926105db565b6114e7565b82546114cc565b9055565b90565b5f5260205f2090565b5490565b61152381611516565b82101561153d5761153560019161150d565b910201905f90565b6105fd565b1b90565b9190600861156191029161155b5f1984611542565b92611542565b9181191691161790565b919061158161157c611589936108c8565b611210565b908354611546565b9055565b90815491680100000000000000008310156115bd57826115b59160016115bb9501815561151a565b9061156b565b565b610a48565b919461160a6116149298979561160060a0966115f661161b9a6115ec60c08a019e5f8b019061015a565b6020890190610207565b604087019061015a565b6060850190610207565b6080830190610207565b0190610207565b565b93919392909261162b6109bd565b506116346109b9565b5061165a8161165361164d6116485f610a0a565b61014e565b9161014e565b1415610e7b565b61167f8561167861167261166d5f610a0a565b61014e565b9161014e565b1415610f23565b61169b8261169561168f5f610d87565b916101b1565b11610fcb565b836116ae6116a85f610d87565b916101b1565b1180611a22575b6116be9061104c565b6116d16116cc5f83906107b6565b610d7a565b6116ed816116e76116e15f610d87565b916101b1565b116110f4565b339061170c826117056116ff8661014e565b9161014e565b141561119c565b61172861172161171c6004610d7a565b6111d9565b6004611213565b6117326004610d7a565b9661174461173f8261123f565b61124b565b60206323b872dd9185906117745f61175b30611257565b9561177f8c611768610102565b98899788968795610a85565b8552600485016112a4565b03925af18015611a1d5761179a915f916119ef575b50611355565b7f00000000000000000000000000000000000000000000000000000000000000006117c3610102565b9061035d820182811067ffffffffffffffff8211176119ea5782916117ef9161035d611c188539610167565b03905ff080156119e5576118029061137e565b9661180c88610a22565b61181d6118188461123f565b61124b565b90602063095ea7b3928b906118455f8c96611850611839610102565b98899687958694610a85565b84526004840161138a565b03925af19182156119e05761187592611870915f916119b2575b5061142c565b610a2e565b896392aa5bcb9187908793859087908c928a96853b156119ad575f976118af9589956118ba946118a3610102565b9c8d9b8c9a8b99610a85565b895260048901611464565b03925af180156119a85761197c575b506118df886118da60018c906108e4565b6114ea565b6118fd6118f66118f1600287906105e7565b61150a565b8a9061158d565b61191b61191461190f600388906105e7565b61150a565b8a9061158d565b611977899389959692939790429161196561195f6119597f6ef5d16ce2352e359ab46d052690f9ea1ceb0c96222da6f2a1b4bfd781b87ffe996108c8565b996105db565b996105db565b9961196e610102565b968796876115c2565b0390a4565b61199b905f3d81116119a1575b6119938183610a5c565b810190611455565b5f6118c9565b503d611989565b610b47565b610a3a565b6119d3915060203d81116119d9575b6119cb8183610a5c565b810190611286565b5f61186a565b503d6119c1565b610b47565b610b47565b610a48565b611a10915060203d8111611a16575b611a088183610a5c565b810190611286565b5f611794565b503d6119fe565b610b47565b506116be84611a40611a3a611a356104ec565b6101b1565b916101b1565b111590506116b5565b5f7f4368616e6e656c466163746f72793a20507269636520746f6f206c6f77000000910152565b611a7d601d602092610df3565b611a8681611a49565b0190565b611a9f9060208101905f818303910152611a70565b90565b15611aa957565b611ab1610102565b62461bcd60e51b815280611ac760048201611a8a565b0390fd5b604090611af4611afb9496959396611aea60608401985f850190610207565b6020830190610207565b0190610207565b565b916020611b1e929493611b1760408201965f830190610207565b0190610207565b565b611b4481611b3d611b37611b3261046b565b6101b1565b916101b1565b1015611aa2565b33611b58611b535f83906107b6565b610d7a565b611b6c83611b675f85906107b6565b611213565b80611b7f611b795f610d87565b916101b1565b145f14611bcd575042611bb27f27880fa9a7a1eb06b830e1d3ffcae48c65261800608a5d0f52faa0c836a1ff75926105db565b92611bc7611bbe610102565b92839283611afd565b0390a25b565b914292611c0f611bfd7f6dcae0d511d218d8d586315a939ca5d3c630486f3f2f63053f5df179809cc159946105db565b94611c06610102565b93849384611acb565b0390a2611bcb56fe60a06040523461003d57610019610014610102565b6101dc565b610021610042565b61015661020782396080518181816051015260e3015261015690f35b610048565b60405190565b5f80fd5b601f801991011690565b634e487b7160e01b5f52604160045260245ffd5b906100749061004c565b810190811060018060401b0382111761008c57604052565b610056565b906100a461009d610042565b928361006a565b565b5f80fd5b60018060a01b031690565b6100be906100aa565b90565b6100ca816100b5565b036100d157565b5f80fd5b905051906100e2826100c1565b565b906020828203126100fd576100fa915f016100d5565b90565b6100a6565b61012061035d8038038061011581610091565b9283398101906100e4565b90565b90565b90565b61013d61013861014292610123565b610126565b6100aa565b90565b61014e90610129565b90565b60209181520190565b5f7f496e76616c696420696d706c656d656e746174696f6e20616464726573730000910152565b61018e601e602092610151565b6101978161015a565b0190565b6101b09060208101905f818303910152610181565b90565b156101ba57565b6101c2610042565b62461bcd60e51b8152806101d86004820161019b565b0390fd5b610201816101fa6101f46101ef5f610145565b6100b5565b916100b5565b14156101b3565b60805256fe60806040526004361015610013575b6100e1565b61001d5f3561002c565b635c60da1b0361000e576100ac565b60e01c90565b60405190565b5f80fd5b5f80fd5b5f91031261004a57565b61003c565b7f000000000000000000000000000000000000000000000000000000000000000090565b60018060a01b031690565b61008790610073565b90565b6100939061007e565b9052565b91906100aa905f6020850194019061008a565b565b346100dc576100bc366004610040565b6100d86100c761004f565b6100cf610032565b91829182610097565b0390f35b610038565b7f00000000000000000000000000000000000000000000000000000000000000005f8091368280378136915af43d5f803e5f1461011c573d5ff35b3d5ffdfea26469706673582212200ae608ae8eb365e8edf80753e308c30f1c81a5539463117967b6e09c8b19d6e364736f6c634300081c0033a26469706673582212203322ca9e4d3e84289f5a3f07b477a343592aa4453c88568b7bc5209763d7fcb764736f6c634300081c0033608060405234602257600e609b565b60146026565b612dd86100a78239612dd890f35b602c565b60405190565b5f80fd5b5f1b90565b90603f60ff916030565b9181191691161790565b634e487b7160e01b5f52602160045260245ffd5b60031115606657565b6049565b90607282605d565b565b607b90606a565b90565b90565b906091608d6097926074565b607e565b82546035565b9055565b60a460025f6081565b56fe60806040526004361015610013575b610bec565b61001d5f3561014c565b806308e8553e146101475780630e1da6c31461014257806312065fe01461013d57806330d281e0146101385780634665096d146101335780634e1b16ce1461012e57806355b550941461012957806366d003ac1461012457806367e404ce1461011f57806392aa5bcb1461011a5780639714378c1461011557806397aba7f914610110578063a035b1fe1461010b578063a7bb580314610106578063b6b55f2514610101578063c45a0155146100fc578063e2cee544146100f7578063fa540801146100f25763fc0c546a0361000e57610bb7565b610ae9565b610a81565b610a3d565b6109fb565b6109c3565b610907565b6108c2565b61073d565b6106e5565b61061d565b6105d9565b61054f565b6104c6565b6103a4565b610356565b61023d565b61020a565b6101d0565b60e01c90565b60405190565b5f80fd5b5f80fd5b5f91031261016a57565b61015c565b1c90565b90565b61018690600861018b930261016f565b610173565b90565b906101999154610176565b90565b6101a860075f9061018e565b90565b90565b6101b7906101ab565b9052565b91906101ce905f602085019401906101ae565b565b34610200576101e0366004610160565b6101fc6101eb61019c565b6101f3610152565b918291826101bb565b0390f35b610158565b5f0190565b346102385761021a366004610160565b6102226112b1565b61022a610152565b8061023481610205565b0390f35b610158565b3461026d5761024d366004610160565b6102696102586112f8565b610260610152565b918291826101bb565b0390f35b610158565b60018060a01b031690565b61028690610272565b90565b6102929061027d565b9052565b634e487b7160e01b5f52602160045260245ffd5b600311156102b457565b610296565b906102c3826102aa565b565b6102ce906102b9565b90565b6102da906102c5565b9052565b959391989796949290986101008701995f88016102fa916101ae565b6020870161030791610289565b6040860161031491610289565b60608501610321916101ae565b6080840161032e916101ae565b60a0830161033b916101ae565b60c08201610348916101ae565b60e001610354916102d1565b565b3461039057610366366004610160565b61038c61037161139b565b94610383989698949194939293610152565b988998896102de565b0390f35b610158565b6103a160045f9061018e565b90565b346103d4576103b4366004610160565b6103d06103bf610395565b6103c7610152565b918291826101bb565b0390f35b610158565b5f80fd5b6103e6816101ab565b036103ed57565b5f80fd5b905035906103fe826103dd565b565b5f80fd5b5f80fd5b5f80fd5b909182601f830112156104465781359167ffffffffffffffff831161044157602001926001830284011161043c57565b610408565b610404565b610400565b91906080838203126104c157610463815f85016103f1565b9261047182602083016103f1565b92604082013567ffffffffffffffff81116104bc578361049291840161040c565b929093606082013567ffffffffffffffff81116104b7576104b3920161040c565b9091565b6103d9565b6103d9565b61015c565b346104fb576104e56104d936600461044b565b94939093929192611c96565b6104ed610152565b806104f781610205565b0390f35b610158565b60ff1690565b61051690600861051b930261016f565b610500565b90565b906105299154610506565b90565b6105375f5f9061051e565b90565b919061054d905f602085019401906102d1565b565b3461057f5761055f366004610160565b61057b61056a61052c565b610572610152565b9182918261053a565b0390f35b610158565b60018060a01b031690565b61059f9060086105a4930261016f565b610584565b90565b906105b2915461058f565b90565b6105c160035f906105a7565b90565b91906105d7905f60208501940190610289565b565b34610609576105e9366004610160565b6106056105f46105b5565b6105fc610152565b918291826105c4565b0390f35b610158565b61061a60025f906105a7565b90565b3461064d5761062d366004610160565b61064961063861060e565b610640610152565b918291826105c4565b0390f35b610158565b61065b8161027d565b0361066257565b5f80fd5b9050359061067382610652565b565b60e0818303126106e05761068b825f8301610666565b926106998360208401610666565b926106a781604085016103f1565b926106b58260608301610666565b926106dd6106c684608085016103f1565b936106d48160a086016103f1565b9360c0016103f1565b90565b61015c565b3461071a576107046106f8366004610675565b959490949391936124fd565b61070c610152565b8061071681610205565b0390f35b610158565b9060208282031261073857610735915f016103f1565b90565b61015c565b3461076b5761075561075036600461071f565b612765565b61075d610152565b8061076781610205565b0390f35b610158565b90565b61077c81610770565b0361078357565b5f80fd5b9050359061079482610773565b565b5f80fd5b601f801991011690565b634e487b7160e01b5f52604160045260245ffd5b906107c29061079a565b810190811067ffffffffffffffff8211176107dc57604052565b6107a4565b906107f46107ed610152565b92836107b8565b565b67ffffffffffffffff81116108145761081060209161079a565b0190565b6107a4565b90825f939282370152565b90929192610839610834826107f6565b6107e1565b938185526020850190828401116108555761085392610819565b565b610796565b9080601f830112156108785781602061087593359101610824565b90565b610400565b9190916040818403126108bd57610896835f8301610787565b92602082013567ffffffffffffffff81116108b8576108b5920161085a565b90565b6103d9565b61015c565b346108f3576108ef6108de6108d836600461087d565b906127ae565b6108e6610152565b918291826105c4565b0390f35b610158565b61090460065f9061018e565b90565b3461093757610917366004610160565b6109336109226108f8565b61092a610152565b918291826101bb565b0390f35b610158565b9060208282031261096c575f82013567ffffffffffffffff811161096757610964920161085a565b90565b6103d9565b61015c565b61097a90610770565b9052565b60ff1690565b61098d9061097e565b9052565b6040906109ba6109c194969593966109b060608401985f850190610971565b6020830190610971565b0190610984565b565b346109f6576109f26109de6109d936600461093c565b6128cd565b6109e9939193610152565b93849384610991565b0390f35b610158565b34610a2957610a13610a0e36600461071f565b612cd7565b610a1b610152565b80610a2581610205565b0390f35b610158565b610a3a60085f906105a7565b90565b34610a6d57610a4d366004610160565b610a69610a58610a2e565b610a60610152565b918291826105c4565b0390f35b610158565b610a7e60015f9061018e565b90565b34610ab157610a91366004610160565b610aad610a9c610a72565b610aa4610152565b918291826101bb565b0390f35b610158565b90602082820312610acf57610acc915f01610787565b90565b61015c565b9190610ae7905f60208501940190610971565b565b34610b1957610b15610b04610aff366004610ab6565b612d59565b610b0c610152565b91829182610ad4565b0390f35b610158565b60018060a01b031690565b610b39906008610b3e930261016f565b610b1e565b90565b90610b4c9154610b29565b90565b610b5b60055f90610b41565b90565b90565b610b75610b70610b7a92610272565b610b5e565b610272565b90565b610b8690610b61565b90565b610b9290610b7d565b90565b610b9e90610b89565b9052565b9190610bb5905f60208501940190610b95565b565b34610be757610bc7366004610160565b610be3610bd2610b4f565b610bda610152565b91829182610ba2565b0390f35b610158565b5f80fd5b5f1c90565b610c01610c0691610bf0565b610584565b90565b610c139054610bf5565b90565b60209181520190565b60207f63616c6c00000000000000000000000000000000000000000000000000000000917f5061796d656e744368616e6e656c3a204f6e6c792073656e6465722063616e205f8201520152565b610c796024604092610c16565b610c8281610c1f565b0190565b610c9b9060208101905f818303910152610c6c565b90565b15610ca557565b610cad610152565b62461bcd60e51b815280610cc360048201610c86565b0390fd5b610cec33610ce6610ce0610cdb6002610c09565b61027d565b9161027d565b14610c9e565b610cf4610dbf565b565b610d02610d0791610bf0565b610500565b90565b610d149054610cf6565b90565b60207f7374617465000000000000000000000000000000000000000000000000000000917f5061796d656e744368616e6e656c3a20496e76616c6964206368616e6e656c205f8201520152565b610d716025604092610c16565b610d7a81610d17565b0190565b610d939060208101905f818303910152610d64565b90565b15610d9d57565b610da5610152565b62461bcd60e51b815280610dbb60048201610d7e565b0390fd5b610de56001610ddf610dd9610dd35f610d0a565b926102b9565b916102b9565b14610d96565b610ded61115c565b565b610dfb610e0091610bf0565b610173565b90565b610e0d9054610def565b90565b60207f6578706972656420796574000000000000000000000000000000000000000000917f5061796d656e744368616e6e656c3a204368616e6e656c20686173206e6f74205f8201520152565b610e6a602b604092610c16565b610e7381610e10565b0190565b610e8c9060208101905f818303910152610e5d565b90565b15610e9657565b610e9e610152565b62461bcd60e51b815280610eb460048201610e77565b0390fd5b90565b610ecf610eca610ed492610eb8565b610b5e565b6101ab565b90565b60207f6d00000000000000000000000000000000000000000000000000000000000000917f5061796d656e744368616e6e656c3a204e6f2066756e647320746f20636c61695f8201520152565b610f316021604092610c16565b610f3a81610ed7565b0190565b610f539060208101905f818303910152610f24565b90565b15610f5d57565b610f65610152565b62461bcd60e51b815280610f7b60048201610f3e565b0390fd5b5f1b90565b90610f9060ff91610f7f565b9181191691161790565b610fa3906102b9565b90565b90565b90610fbe610fb9610fc592610f9a565b610fa6565b8254610f84565b9055565b610fd5610fda91610bf0565b610b1e565b90565b610fe79054610fc9565b90565b60e01b90565b151590565b610ffe81610ff0565b0361100557565b5f80fd5b9050519061101682610ff5565b565b906020828203126110315761102e915f01611009565b90565b61015c565b91602061105792949361105060408201965f830190610289565b01906101ae565b565b611061610152565b3d5f823e3d90fd5b60207f616e73666572206661696c656400000000000000000000000000000000000000917f5061796d656e744368616e6e656c3a2054696d656f757420636c61696d2074725f8201520152565b6110c3602d604092610c16565b6110cc81611069565b0190565b6110e59060208101905f8183039101526110b6565b90565b156110ef57565b6110f7610152565b62461bcd60e51b81528061110d600482016110d0565b0390fd5b61112561112061112a926101ab565b610b5e565b6101ab565b90565b61113690610b7d565b90565b91602061115a92949361115360408201965f8301906101ae565b01906101ae565b565b6111824261117b6111756111706004610e03565b6101ab565b916101ab565b1015610e8f565b61118a6112f8565b6111a6816111a061119a5f610ebb565b916101ab565b11610f56565b6111b160025f610fa9565b6111c36111be6005610fdd565b610b89565b602063a9059cbb916111d56002610c09565b906111f35f86956111fe6111e7610152565b97889687958694610fea565b845260048401611036565b03925af180156112ac57611219915f9161127e575b506110e8565b6112236001610e03565b9061122e6002610c09565b90914261126461125e7f5877a459be8a3085203a9360a1e7e9baf9d156e9f280368fee78086dbe1f4fc893611111565b9361112d565b93611279611270610152565b92839283611139565b0390a3565b61129f915060203d81116112a5575b61129781836107b8565b810190611018565b5f611213565b503d61128d565b611059565b6112b9610cc7565b565b5f90565b6112c890610b7d565b90565b905051906112d8826103dd565b565b906020828203126112f3576112f0915f016112cb565b90565b61015c565b6113006112bb565b5061134a60206113186113136005610fdd565b610b89565b6370a082319061133f61132a306112bf565b92611333610152565b95869485938493610fea565b8352600483016105c4565b03915afa90811561138e575f91611360575b5090565b611381915060203d8111611387575b61137981836107b8565b8101906112da565b5f61135c565b503d61136f565b611059565b5f90565b5f90565b6113a36112bb565b506113ac611393565b506113b5611393565b506113be6112bb565b506113c76112bb565b506113d06112bb565b506113d96112bb565b506113e2611397565b506113ed6001610e03565b906113f86002610c09565b916114036003610c09565b9161140e6004610e03565b916114176112f8565b916114226006610e03565b9161142d6007610e03565b916114375f610d0a565b919796959493929190565b60207f616e2063616c6c00000000000000000000000000000000000000000000000000917f5061796d656e744368616e6e656c3a204f6e6c7920726563697069656e7420635f8201520152565b61149c6027604092610c16565b6114a581611442565b0190565b6114be9060208101905f81830391015261148f565b90565b156114c857565b6114d0610152565b62461bcd60e51b8152806114e6600482016114a9565b0390fd5b9061151d95949392916115183361151261150c6115076003610c09565b61027d565b9161027d565b146114c1565b61151f565b565b90611553959493929161154e600161154861154261153c5f610d0a565b926102b9565b916102b9565b14610d96565b6119ac565b565b5f7f5061796d656e744368616e6e656c3a20496e76616c6964206e6f6e6365000000910152565b611589601d602092610c16565b61159281611555565b0190565b6115ab9060208101905f81830391015261157c565b90565b156115b557565b6115bd610152565b62461bcd60e51b8152806115d360048201611596565b0390fd5b60207f62616c616e636500000000000000000000000000000000000000000000000000917f5061796d656e744368616e6e656c3a20496e76616c6964206368616e6e656c205f8201520152565b6116316027604092610c16565b61163a816115d7565b0190565b6116539060208101905f818303910152611624565b90565b1561165d57565b611665610152565b62461bcd60e51b81528061167b6004820161163e565b0390fd5b90565b61168e611693916101ab565b61167f565b9052565b905090565b9091826116ac816116b393611697565b8093610819565b0190565b602080936116da82846116d26116e2966116e99c9a98611682565b018092611682565b018092611682565b019161169c565b90565b60200190565b5190565b611701913691610824565b90565b60207f6500000000000000000000000000000000000000000000000000000000000000917f5061796d656e744368616e6e656c3a20496e76616c6964207369676e617475725f8201520152565b61175e6021604092610c16565b61176781611704565b0190565b6117809060208101905f818303910152611751565b90565b1561178a57565b611792610152565b62461bcd60e51b8152806117a86004820161176b565b0390fd5b634e487b7160e01b5f52601160045260245ffd5b6117cf6117d5919392936101ab565b926101ab565b82039182116117e057565b6117ac565b906117f15f1991610f7f565b9181191691161790565b90565b9061181361180e61181a92611111565b6117fb565b82546117e5565b9055565b60207f206661696c656400000000000000000000000000000000000000000000000000917f5061796d656e744368616e6e656c3a205061796d656e74207472616e736665725f8201520152565b6118786027604092610c16565b6118818161181e565b0190565b61189a9060208101905f81830391015261186b565b90565b156118a457565b6118ac610152565b62461bcd60e51b8152806118c260048201611885565b0390fd5b60207f6661696c65640000000000000000000000000000000000000000000000000000917f5061796d656e744368616e6e656c3a20526566756e64207472616e73666572205f8201520152565b6119206026604092610c16565b611929816118c6565b0190565b6119429060208101905f818303910152611913565b90565b1561194c57565b611954610152565b62461bcd60e51b81528061196a6004820161192d565b0390fd5b6119a36119aa9461199960609498979561198f608086019a5f8701906101ae565b60208501906101ae565b60408301906101ae565b01906101ae565b565b93611a6b90611a658397611a5f611a8c95611a478a611a38611a939b9a6119ee856119e86119e26119dd6007610e03565b6101ab565b916101ab565b116115ae565b6119f66112f8565b9b611a158d611a0e611a0887926101ab565b916101ab565b1115611656565b611a1f6001610e03565b9395919091611a2c610152565b968795602087016116b7565b602082018103825203826107b8565b611a59611a53826116f2565b916116ec565b20612d59565b926116f6565b906127ae565b611a86611a80611a7b6002610c09565b61027d565b9161027d565b14611783565b82906117c0565b90611a9f60025f610fa9565b611aaa8360076117fe565b81611abd611ab75f610ebb565b916101ab565b11611bf6575b80611ad6611ad05f610ebb565b916101ab565b11611b56575b611ae66001610e03565b611af06002610c09565b91611afb6003610c09565b93611b5142919296611b3f611b39611b337fecd9483a3eeee5869735d702da6a98e633032f959185588e1a8c36e754d4dcca97611111565b9761112d565b9761112d565b97611b48610152565b9485948561196e565b0390a4565b611b68611b636005610fdd565b610b89565b602063a9059cbb91611b7a6002610c09565b90611b985f8695611ba3611b8c610152565b97889687958694610fea565b845260048401611036565b03925af18015611bf157611bbe915f91611bc3575b50611945565b611adc565b611be4915060203d8111611bea575b611bdc81836107b8565b810190611018565b5f611bb8565b503d611bd2565b611059565b611c08611c036005610fdd565b610b89565b602063a9059cbb91611c1a6003610c09565b90611c385f8795611c43611c2c610152565b97889687958694610fea565b845260048401611036565b03925af18015611c9157611c5e915f91611c63575b5061189d565b611ac3565b611c84915060203d8111611c8a575b611c7c81836107b8565b810190611018565b5f611c58565b503d611c72565b611059565b90611ca495949392916114ea565b565b90611cda969594939291611cd55f611ccf611cc9611cc35f610d0a565b926102b9565b916102b9565b14610d96565b6122aa565b565b611cf0611ceb611cf592610eb8565b610b5e565b610272565b90565b611d0190611cdc565b90565b60207f7420616464726573730000000000000000000000000000000000000000000000917f5061796d656e744368616e6e656c3a20496e76616c696420726563697069656e5f8201520152565b611d5e6029604092610c16565b611d6781611d04565b0190565b611d809060208101905f818303910152611d51565b90565b15611d8a57565b611d92610152565b62461bcd60e51b815280611da860048201611d6b565b0390fd5b60207f6464726573730000000000000000000000000000000000000000000000000000917f5061796d656e744368616e6e656c3a20496e76616c69642073656e64657220615f8201520152565b611e066026604092610c16565b611e0f81611dac565b0190565b611e289060208101905f818303910152611df9565b90565b15611e3257565b611e3a610152565b62461bcd60e51b815280611e5060048201611e13565b0390fd5b60207f6472657373000000000000000000000000000000000000000000000000000000917f5061796d656e744368616e6e656c3a20496e76616c696420746f6b656e2061645f8201520152565b611eae6025604092610c16565b611eb781611e54565b0190565b611ed09060208101905f818303910152611ea1565b90565b15611eda57565b611ee2610152565b62461bcd60e51b815280611ef860048201611ebb565b0390fd5b60207f7573742062652067726561746572207468616e20300000000000000000000000917f5061796d656e744368616e6e656c3a20496e697469616c20616d6f756e74206d5f8201520152565b611f566035604092610c16565b611f5f81611efc565b0190565b611f789060208101905f818303910152611f49565b90565b15611f8257565b611f8a610152565b62461bcd60e51b815280611fa060048201611f63565b0390fd5b60207f6561746572207468616e20300000000000000000000000000000000000000000917f5061796d656e744368616e6e656c3a205072696365206d7573742062652067725f8201520152565b611ffe602c604092610c16565b61200781611fa4565b0190565b6120209060208101905f818303910152611ff1565b90565b1561202a57565b612032610152565b62461bcd60e51b8152806120486004820161200b565b0390fd5b60207f2067726561746572207468616e20300000000000000000000000000000000000917f5061796d656e744368616e6e656c3a204475726174696f6e206d7573742062655f8201520152565b6120a6602f604092610c16565b6120af8161204c565b0190565b6120c89060208101905f818303910152612099565b90565b156120d257565b6120da610152565b62461bcd60e51b8152806120f0600482016120b3565b0390fd5b9061210560018060a01b0391610f7f565b9181191691161790565b90565b9061212761212261212e9261112d565b61210f565b82546120f4565b9055565b612141612147919392936101ab565b926101ab565b820180921161215257565b6117ac565b61216090610b61565b90565b61216c90612157565b90565b61217890612157565b90565b90565b9061219361218e61219a9261216f565b61217b565b82546120f4565b9055565b6040906121c76121ce94969593966121bd60608401985f850190610289565b6020830190610289565b01906101ae565b565b60207f7472616e73666572206661696c65640000000000000000000000000000000000917f5061796d656e744368616e6e656c3a20496e697469616c206465706f736974205f8201520152565b61222a602f604092610c16565b612233816121d0565b0190565b61224c9060208101905f81830391015261221d565b90565b1561225657565b61225e610152565b62461bcd60e51b81528061227460048201612237565b0390fd5b6040906122a16122a8949695939661229760608401985f8501906101ae565b60208301906101ae565b01906101ae565b565b6123c5936123b26123ab6123cc98956123a56123b79561239e6123be986123548d9f9d6122f2856122eb6122e56122e05f611cf8565b61027d565b9161027d565b1415611d83565b6123178361231061230a6123055f611cf8565b61027d565b9161027d565b1415611e2b565b61233c8a61233561232f61232a5f611cf8565b61027d565b9161027d565b1415611ed3565b61234e6123485f610ebb565b916101ab565b11611f7b565b6123708b61236a6123645f610ebb565b916101ab565b11612023565b61238c856123866123805f610ebb565b916101ab565b116120cb565b612397336008612112565b6002612112565b6003612112565b42612132565b60046117fe565b612163565b600561217e565b60066117fe565b60016117fe565b6123d760015f610fa9565b6123e96123e46005610fdd565b610b89565b60206323b872dd9133906124195f612400306112bf565b956124248861240d610152565b98899788968795610fea565b85526004850161219e565b03925af180156124f85761243f915f916124ca575b5061224f565b6124496001610e03565b6124536002610c09565b61245d6003610c09565b916124686004610e03565b936124736006610e03565b946124c56124b36124ad6124a77ffd150ce817ab1c0882a105ce18b55642f117bfa03930a45e7ea3d013f78e967d96611111565b9661112d565b9661112d565b966124bc610152565b93849384612278565b0390a4565b6124eb915060203d81116124f1575b6124e381836107b8565b810190611018565b5f612439565b503d6124d9565b611059565b9061250c969594939291611ca6565b565b61253c906125373361253161252b6125266002610c09565b61027d565b9161027d565b14610c9e565b61253e565b565b61256d90612568600161256261255c6125565f610d0a565b926102b9565b916102b9565b14610d96565b6126bf565b565b60207f757374206265206c617465720000000000000000000000000000000000000000917f5061796d656e744368616e6e656c3a204e65772065787069726174696f6e206d5f8201520152565b6125c9602c604092610c16565b6125d28161256f565b0190565b6125eb9060208101905f8183039101526125bc565b90565b156125f557565b6125fd610152565b62461bcd60e51b815280612613600482016125d6565b0390fd5b60207f75737420626520696e2074686520667574757265000000000000000000000000917f5061796d656e744368616e6e656c3a204e65772065787069726174696f6e206d5f8201520152565b6126716034604092610c16565b61267a81612617565b0190565b6126939060208101905f818303910152612664565b90565b1561269d57565b6126a5610152565b62461bcd60e51b8152806126bb6004820161267e565b0390fd5b6126e4816126de6126d86126d36004610e03565b6101ab565b916101ab565b116125ee565b612700816126fa6126f4426101ab565b916101ab565b11612696565b61270a6004610e03565b6127158260046117fe565b61271f6001610e03565b909161274b7f7f201ba94f1edd1b6bc4682a0861aa5b75b1742feacc168871d6600710e8084c92611111565b92612760612757610152565b92839283611139565b0390a2565b61276e9061250e565b565b6127a56127ac9461279b606094989795612791608086019a5f870190610971565b6020850190610984565b6040830190610971565b0190610971565b565b6127de5f916127c76020946127c1611393565b506128cd565b9093919390936127d5610152565b94859485612770565b838052039060015afa156127f9576127f65f51610f7f565b90565b611059565b5f90565b5f90565b90565b61281d61281861282292612806565b610b5e565b6101ab565b90565b60207f65206c656e677468000000000000000000000000000000000000000000000000917f5061796d656e744368616e6e656c3a20496e76616c6964207369676e617475725f8201520152565b61287f6028604092610c16565b61288881612825565b0190565b6128a19060208101905f818303910152612872565b90565b156128ab57565b6128b3610152565b62461bcd60e51b8152806128c96004820161288c565b0390fd5b6128d56127fe565b506128de6127fe565b506128e7612802565b5061290d6128f4826116f2565b6129076129016041612809565b916101ab565b146128a4565b602081015191606060408301519201515f1a90565b6129509061294b3361294561293f61293a6002610c09565b61027d565b9161027d565b14610c9e565b612952565b565b6129819061297c600161297661297061296a5f610d0a565b926102b9565b916102b9565b14610d96565b612a2b565b565b60207f7265640000000000000000000000000000000000000000000000000000000000917f5061796d656e744368616e6e656c3a204368616e6e656c2068617320657870695f8201520152565b6129dd6023604092610c16565b6129e681612983565b0190565b6129ff9060208101905f8183039101526129d0565b90565b15612a0957565b612a11610152565b62461bcd60e51b815280612a27600482016129ea565b0390fd5b612a5990612a5442612a4e612a48612a436004610e03565b6101ab565b916101ab565b10612a02565b612bab565b565b60207f7573742062652067726561746572207468616e20300000000000000000000000917f5061796d656e744368616e6e656c3a204465706f73697420616d6f756e74206d5f8201520152565b612ab56035604092610c16565b612abe81612a5b565b0190565b612ad79060208101905f818303910152612aa8565b90565b15612ae157565b612ae9610152565b62461bcd60e51b815280612aff60048201612ac2565b0390fd5b60207f206661696c656400000000000000000000000000000000000000000000000000917f5061796d656e744368616e6e656c3a204465706f736974207472616e736665725f8201520152565b612b5d6027604092610c16565b612b6681612b03565b0190565b612b7f9060208101905f818303910152612b50565b90565b15612b8957565b612b91610152565b62461bcd60e51b815280612ba760048201612b6a565b0390fd5b612bc781612bc1612bbb5f610ebb565b916101ab565b11612ada565b612bd9612bd46005610fdd565b610b89565b60206323b872dd91612beb6002610c09565b90612c125f612bf9306112bf565b95612c1d88612c06610152565b98899788968795610fea565b85526004850161219e565b03925af18015612cd257612c38915f91612ca4575b50612b82565b612c426001610e03565b90612c4d6002610c09565b9091612c576112f8565b612c8a612c847ff7748ed362ae6427631c778e495f7eb63b00c0794b6066744a0cba2c59135a6593611111565b9361112d565b93612c9f612c96610152565b92839283611139565b0390a3565b612cc5915060203d8111612ccb575b612cbd81836107b8565b810190611018565b5f612c32565b503d612cb3565b611059565b612ce090612922565b565b905090565b5f7f19457468657265756d205369676e6564204d6573736167653a0a333200000000910152565b612d1a601c8092612ce2565b612d2381612ce7565b0190565b90565b612d36612d3b91610770565b612d27565b9052565b90612d55612d4e602093612d0e565b8092612d2a565b0190565b612d8c612d7d91612d686127fe565b50612d71610152565b92839160208301612d3f565b602082018103825203826107b8565b612d9e612d98826116f2565b916116ec565b209056fea2646970667358221220a81e9e945a772fc4d4529cf23a0c28973c459e5a9d3db191f84587bcb9dc14f864736f6c634300081c0033",
    "linkReferences": {}
  },
  "methodIdentifiers": {
    "MAX_CHANNEL_DURATION()": "47a1cd8a",
    "MINIMUM_PRICE()": "35187665",
    "channels(uint256)": "e5949b5d",
    "createChannel(address,uint256,address,uint256)": "735d5fbc",
    "getChannelInfo(uint256)": "1d7a4993",
    "getRecipientChannels(address)": "26dddd83",
    "getSenderChannels(address)": "7098f856",
    "isRegisteredProvider(address)": "51ca236f",
    "paymentChannelImplementation()": "183adba6",
    "pricing(address)": "75c94d9a",
    "recipientChannels(address,uint256)": "62e223bb",
    "register(uint256)": "f207564e",
    "senderChannels(address,uint256)": "d9945742",
    "totalChannels()": "7734a9f6"
  },
  "id": 0
}