{
  "abi": [
    {
      "type": "function",
      "name": "channelId",
      "inputs": [],
      "outputs": [
        {
          "name": "",
          "type": "uint256",
          "internalType": "uint256"
        }
      ],
      "stateMutability": "view"
    },
    {
      "type": "function",
      "name": "claimTimeout",
      "inputs": [],
      "outputs": [],
      "stateMutability": "nonpayable"
    },
    {
      "type": "function",
      "name": "close",
      "inputs": [
        {
          "name": "channelBalance",
          "type": "uint256",
          "internalType": "uint256"
        },
        {
          "name": "nonce",
          "type": "uint256",
          "internalType": "uint256"
        },
        {
          "name": "rawBody",
          "type": "bytes",
          "internalType": "bytes"
        },
        {
          "name": "signature",
          "type": "bytes",
          "internalType": "bytes"
        }
      ],
      "outputs": [],
      "stateMutability": "nonpayable"
    },
    {
      "type": "function",
      "name": "deposit",
      "inputs": [
        {
          "name": "_amount",
          "type": "uint256",
          "internalType": "uint256"
        }
      ],
      "outputs": [],
      "stateMutability": "nonpayable"
    },
    {
      "type": "function",
      "name": "depositBalance",
      "inputs": [],
      "outputs": [
        {
          "name": "",
          "type": "uint256",
          "internalType": "uint256"
        }
      ],
      "stateMutability": "view"
    },
    {
      "type": "function",
      "name": "expiration",
      "inputs": [],
      "outputs": [
        {
          "name": "",
          "type": "uint256",
          "internalType": "uint256"
        }
      ],
      "stateMutability": "view"
    },
    {
      "type": "function",
      "name": "extend",
      "inputs": [
        {
          "name": "newExpiration",
          "type": "uint256",
          "internalType": "uint256"
        }
      ],
      "outputs": [],
      "stateMutability": "nonpayable"
    },
    {
      "type": "function",
      "name": "getBalance",
      "inputs": [],
      "outputs": [
        {
          "name": "",
          "type": "uint256",
          "internalType": "uint256"
        }
      ],
      "stateMutability": "view"
    },
    {
      "type": "function",
      "name": "getEthSignedMessageHash",
      "inputs": [
        {
          "name": "_messageHash",
          "type": "bytes32",
          "internalType": "bytes32"
        }
      ],
      "outputs": [
        {
          "name": "",
          "type": "bytes32",
          "internalType": "bytes32"
        }
      ],
      "stateMutability": "pure"
    },
    {
      "type": "function",
      "name": "init",
      "inputs": [
        {
          "name": "_recipient",
          "type": "address",
          "internalType": "address"
        },
        {
          "name": "_sender",
          "type": "address",
          "internalType": "address"
        },
        {
          "name": "_duration",
          "type": "uint256",
          "internalType": "uint256"
        },
        {
          "name": "_tokenAddress",
          "type": "address",
          "internalType": "address"
        },
        {
          "name": "_amount",
          "type": "uint256",
          "internalType": "uint256"
        },
        {
          "name": "_price",
          "type": "uint256",
          "internalType": "uint256"
        },
        {
          "name": "_channelId",
          "type": "uint256",
          "internalType": "uint256"
        }
      ],
      "outputs": [],
      "stateMutability": "nonpayable"
    },
    {
      "type": "function",
      "name": "price",
      "inputs": [],
      "outputs": [
        {
          "name": "",
          "type": "uint256",
          "internalType": "uint256"
        }
      ],
      "stateMutability": "view"
    },
    {
      "type": "function",
      "name": "recipient",
      "inputs": [],
      "outputs": [
        {
          "name": "",
          "type": "address",
          "internalType": "address"
        }
      ],
      "stateMutability": "view"
    },
    {
      "type": "function",
      "name": "recoverSigner",
      "inputs": [
        {
          "name": "_ethSignedMessageHash",
          "type": "bytes32",
          "internalType": "bytes32"
        },
        {
          "name": "_signature",
          "type": "bytes",
          "internalType": "bytes"
        }
      ],
      "outputs": [
        {
          "name": "",
          "type": "address",
          "internalType": "address"
        }
      ],
      "stateMutability": "pure"
    },
    {
      "type": "function",
      "name": "sender",
      "inputs": [],
      "outputs": [
        {
          "name": "",
          "type": "address",
          "internalType": "address"
        }
      ],
      "stateMutability": "view"
    },
    {
      "type": "function",
      "name": "splitSignature",
      "inputs": [
        {
          "name": "sig",
          "type": "bytes",
          "internalType": "bytes"
        }
      ],
      "outputs": [
        {
          "name": "r",
          "type": "bytes32",
          "internalType": "bytes32"
        },
        {
          "name": "s",
          "type": "bytes32",
          "internalType": "bytes32"
        },
        {
          "name": "v",
          "type": "uint8",
          "internalType": "uint8"
        }
      ],
      "stateMutability": "pure"
    },
    {
      "type": "function",
      "name": "token",
      "inputs": [],
      "outputs": [
        {
          "name": "",
          "type": "address",
          "internalType": "contract IERC20"
        }
      ],
      "stateMutability": "view"
    },
    {
      "type": "event",
      "name": "channelClosed",
      "inputs": [
        {
          "name": "channel_id",
          "type": "uint256",
          "indexed": false,
          "internalType": "uint256"
        },
        {
          "name": "sender",
          "type": "address",
          "indexed": false,
          "internalType": "address"
        },
        {
          "name": "recipient",
          "type": "address",
          "indexed": false,
          "internalType": "address"
        },
        {
          "name": "timestamp",
          "type": "uint256",
          "indexed": false,
          "internalType": "uint256"
        },
        {
          "name": "amount",
          "type": "uint256",
          "indexed": false,
          "internalType": "uint256"
        },
        {
          "name": "nonce",
          "type": "uint256",
          "indexed": false,
          "internalType": "uint256"
        }
      ],
      "anonymous": false
    },
    {
      "type": "event",
      "name": "channelCreated",
      "inputs": [
        {
          "name": "channel_id",
          "type": "uint256",
          "indexed": false,
          "internalType": "uint256"
        },
        {
          "name": "sender",
          "type": "address",
          "indexed": false,
          "internalType": "address"
        },
        {
          "name": "recipient",
          "type": "address",
          "indexed": false,
          "internalType": "address"
        },
        {
          "name": "expiration",
          "type": "uint256",
          "indexed": false,
          "internalType": "uint256"
        },
        {
          "name": "balance",
          "type": "uint256",
          "indexed": false,
          "internalType": "uint256"
        },
        {
          "name": "price",
          "type": "uint256",
          "indexed": false,
          "internalType": "uint256"
        },
        {
          "name": "nonce",
          "type": "uint256",
          "indexed": false,
          "internalType": "uint256"
        }
      ],
      "anonymous": false
    },
    {
      "type": "event",
      "name": "depositMade",
      "inputs": [
        {
          "name": "channel_id",
          "type": "uint256",
          "indexed": false,
          "internalType": "uint256"
        },
        {
          "name": "sender",
          "type": "address",
          "indexed": false,
          "internalType": "address"
        },
        {
          "name": "recipient",
          "type": "address",
          "indexed": false,
          "internalType": "address"
        },
        {
          "name": "amount",
          "type": "uint256",
          "indexed": false,
          "internalType": "uint256"
        },
        {
          "name": "newBalance",
          "type": "uint256",
          "indexed": false,
          "internalType": "uint256"
        }
      ],
      "anonymous": false
    },
    {
      "type": "event",
      "name": "expirationExtended",
      "inputs": [
        {
          "name": "channel_id",
          "type": "uint256",
          "indexed": false,
          "internalType": "uint256"
        },
        {
          "name": "sender",
          "type": "address",
          "indexed": false,
          "internalType": "address"
        },
        {
          "name": "recipient",
          "type": "address",
          "indexed": false,
          "internalType": "address"
        },
        {
          "name": "expiration",
          "type": "uint256",
          "indexed": false,
          "internalType": "uint256"
        }
      ],
      "anonymous": false
    },
    {
      "type": "event",
      "name": "timeoutClaimed",
      "inputs": [
        {
          "name": "channel_id",
          "type": "uint256",
          "indexed": false,
          "internalType": "uint256"
        },
        {
          "name": "sender",
          "type": "address",
          "indexed": false,
          "internalType": "address"
        },
        {
          "name": "recipient",
          "type": "address",
          "indexed": false,
          "internalType": "address"
        },
        {
          "name": "timestamp",
          "type": "uint256",
          "indexed": false,
          "internalType": "uint256"
        }
      ],
      "anonymous": false
    }
  ],
  "bytecode": {
    "object": "0x6080604052348015600f57600080fd5b50610ef38061001f6000396000f3fe608060405234801561001057600080fd5b50600436106101005760003560e01c80639714378c11610097578063b6b55f2511610066578063b6b55f2514610200578063e2cee54414610213578063fa5408011461021c578063fc0c546a1461022f57600080fd5b80639714378c146101a057806397aba7f9146101b3578063a035b1fe146101c6578063a7bb5803146101cf57600080fd5b806361bc1a49116100d357806361bc1a491461014657806366d003ac1461014f57806367e404ce1461017a57806392aa5bcb1461018d57600080fd5b80630e1da6c31461010557806312065fe01461010f5780634665096d1461012a5780634e1b16ce14610133575b600080fd5b61010d610242565b005b610117610393565b6040519081526020015b60405180910390f35b61011760045481565b61010d610141366004610bad565b610405565b61011760055481565b600354610162906001600160a01b031681565b6040516001600160a01b039091168152602001610121565b600254610162906001600160a01b031681565b61010d61019b366004610c51565b61068c565b61010d6101ae366004610cb9565b610840565b6101626101c1366004610d77565b6108c8565b61011760075481565b6101e26101dd366004610dbe565b610948565b60408051938452602084019290925260ff1690820152606001610121565b61010d61020e366004610cb9565b6109bc565b61011760015481565b61011761022a366004610cb9565b610b11565b600654610162906001600160a01b031681565b60045442101561025157600080fd5b6006546003546040516370a0823160e01b81523060048201526001600160a01b039283169263a9059cbb92169083906370a0823190602401602060405180830381865afa1580156102a6573d6000803e3d6000fd5b505050506040513d601f19601f820116820180604052508101906102ca9190610dfb565b6040516001600160e01b031960e085901b1681526001600160a01b03909216600483015260248201526044016020604051808303816000875af1158015610315573d6000803e3d6000fd5b505050506040513d601f19601f820116820180604052508101906103399190610e14565b50600154600254600354604080519384526001600160a01b039283166020850152911682820152426060830152517f213a4d3f1e64b784b982ccc4359a57991822e3f712ce38c1a5068b5508d0ac569181900360800190a1565b6006546040516370a0823160e01b81523060048201526000916001600160a01b0316906370a0823190602401602060405180830381865afa1580156103dc573d6000803e3d6000fd5b505050506040513d601f19601f820116820180604052508101906104009190610dfb565b905090565b6003546001600160a01b0316331461041c57600080fd5b600060015487878787604051602001610439959493929190610e3d565b604051602081830303815290604052805190602001209050600061045c82610b11565b600254604080516020601f88018190048102820181019092528681529293506001600160a01b03909116916104ae9184919088908890819084018382808284376000920191909152506108c892505050565b6001600160a01b0316146104fd5760405162461bcd60e51b8152602060048201526011602482015270496e76616c6964205369676e617475726560781b60448201526064015b60405180910390fd5b600088610508610393565b6105129190610e97565b60065460035460405163a9059cbb60e01b81526001600160a01b03918216600482015260248101849052929350169063a9059cbb906044016020604051808303816000875af1158015610569573d6000803e3d6000fd5b505050506040513d601f19601f8201168201806040525081019061058d9190610e14565b506000610598610393565b9050801561061b5760065460025460405163a9059cbb60e01b81526001600160a01b0391821660048201526024810184905291169063a9059cbb906044016020604051808303816000875af11580156105f5573d6000803e3d6000fd5b505050506040513d601f19601f820116820180604052508101906106199190610e14565b505b600154600254600354604080519384526001600160a01b0392831660208501529116828201524260608301526080820184905260a082018b9052517f6ba809a8ecd716c24d75a3232d9c16adb1dd7371ad89ea8461f44c0928eaab659181900360c00190a150505050505050505050565b60005460ff16156106df5760405162461bcd60e51b815260206004820152601b60248201527f4368616e6e656c20616c726561647920696e697469616c697a6564000000000060448201526064016104f4565b600280546001600160a01b038089166001600160a01b03199283161790925560038054928a16929091169190911790556107198542610eaa565b6004908155600680546001600160a01b0319166001600160a01b0387169081179091556040516323b872dd60e01b8152339281019290925230602483015260448201859052906323b872dd906064016020604051808303816000875af1158015610787573d6000803e3d6000fd5b505050506040513d601f19601f820116820180604052508101906107ab9190610e14565b506005839055600782905560018181556000805460ff19169091178155600254600354600454604080518681526001600160a01b039485166020820152939092168383015260608301526080820186905260a0820185905260c082019290925290517f655f8515373f89502c525d938b13cc7ca710e30ff850db18bec02290fe49a1279181900360e00190a150505050505050565b6002546001600160a01b0316331461085757600080fd5b600454811161086557600080fd5b6004819055600154600254600354604080519384526001600160a01b039283166020850152911690820152606081018290527f0c8645c3473b31222b51b16e03e66e919a6b6ec585b08480a717ec6f312c7ee3906080015b60405180910390a150565b6000806000806108d785610948565b6040805160008152602081018083528b905260ff8316918101919091526060810184905260808101839052929550909350915060019060a0016020604051602081039080840390855afa158015610932573d6000803e3d6000fd5b5050506020604051035193505050505b92915050565b6000806000835160411461099e5760405162461bcd60e51b815260206004820152601860248201527f696e76616c6964207369676e6174757265206c656e677468000000000000000060448201526064016104f4565b50505060208101516040820151606090920151909260009190911a90565b6002546001600160a01b03163314610a165760405162461bcd60e51b815260206004820152601760248201527f4f6e6c792073656e6465722063616e206465706f73697400000000000000000060448201526064016104f4565b6006546002546040516323b872dd60e01b81526001600160a01b039182166004820152306024820152604481018490529116906323b872dd906064016020604051808303816000875af1158015610a71573d6000803e3d6000fd5b505050506040513d601f19601f82011682018060405250810190610a959190610e14565b508060056000828254610aa89190610eaa565b9091555050600154600254600354600554604080519485526001600160a01b03938416602086015292909116918301919091526060820183905260808201527f94fb5f29cabb061b79ee0a3255c1dbde1a687bae78107735c17232fdc588e66b9060a0016108bd565b6040517f19457468657265756d205369676e6564204d6573736167653a0a3332000000006020820152603c8101829052600090605c01604051602081830303815290604052805190602001209050919050565b60008083601f840112610b7657600080fd5b50813567ffffffffffffffff811115610b8e57600080fd5b602083019150836020828501011115610ba657600080fd5b9250929050565b60008060008060008060808789031215610bc657600080fd5b8635955060208701359450604087013567ffffffffffffffff811115610beb57600080fd5b610bf789828a01610b64565b909550935050606087013567ffffffffffffffff811115610c1757600080fd5b610c2389828a01610b64565b979a9699509497509295939492505050565b80356001600160a01b0381168114610c4c57600080fd5b919050565b600080600080600080600060e0888a031215610c6c57600080fd5b610c7588610c35565b9650610c8360208901610c35565b955060408801359450610c9860608901610c35565b9699959850939660808101359560a0820135955060c0909101359350915050565b600060208284031215610ccb57600080fd5b5035919050565b634e487b7160e01b600052604160045260246000fd5b600082601f830112610cf957600080fd5b813567ffffffffffffffff811115610d1357610d13610cd2565b604051601f8201601f19908116603f0116810167ffffffffffffffff81118282101715610d4257610d42610cd2565b604052818152838201602001851015610d5a57600080fd5b816020850160208301376000918101602001919091529392505050565b60008060408385031215610d8a57600080fd5b82359150602083013567ffffffffffffffff811115610da857600080fd5b610db485828601610ce8565b9150509250929050565b600060208284031215610dd057600080fd5b813567ffffffffffffffff811115610de757600080fd5b610df384828501610ce8565b949350505050565b600060208284031215610e0d57600080fd5b5051919050565b600060208284031215610e2657600080fd5b81518015158114610e3657600080fd5b9392505050565b85815284602082015283604082015260806060820152816080820152818360a0830137600081830160a090810191909152601f909201601f19160101949350505050565b634e487b7160e01b600052601160045260246000fd5b8181038181111561094257610942610e81565b8082018082111561094257610942610e8156fea2646970667358221220053184e6502ae2c24dbc00360c8336f0a417472f5b0cfe057cce796b0de64c0164736f6c634300081a0033",
    "linkReferences": {}
  },
  "methodIdentifiers": {
    "channelId()": "e2cee544",
    "claimTimeout()": "0e1da6c3",
    "close(uint256,uint256,bytes,bytes)": "4e1b16ce",
    "deposit(uint256)": "b6b55f25",
    "depositBalance()": "61bc1a49",
    "expiration()": "4665096d",
    "extend(uint256)": "9714378c",
    "getBalance()": "12065fe0",
    "getEthSignedMessageHash(bytes32)": "fa540801",
    "init(address,address,uint256,address,uint256,uint256,uint256)": "92aa5bcb",
    "price()": "a035b1fe",
    "recipient()": "66d003ac",
    "recoverSigner(bytes32,bytes)": "97aba7f9",
    "sender()": "67e404ce",
    "splitSignature(bytes)": "a7bb5803",
    "token()": "fc0c546a"
  },
  "id": 2
}