{
  "abi": [
    {
      "type": "constructor",
      "inputs": [],
      "stateMutability": "nonpayable"
    },
    {
      "type": "function",
      "name": "channels",
      "inputs": [
        {
          "name": "",
          "type": "uint256",
          "internalType": "uint256"
        }
      ],
      "outputs": [
        {
          "name": "",
          "type": "address",
          "internalType": "address"
        }
      ],
      "stateMutability": "view"
    },
    {
      "type": "function",
      "name": "createChannel",
      "inputs": [
        {
          "name": "recipient",
          "type": "address",
          "internalType": "address"
        },
        {
          "name": "_duration",
          "type": "uint256",
          "internalType": "uint256"
        },
        {
          "name": "_tokenAddress",
          "type": "address",
          "internalType": "address"
        },
        {
          "name": "_amount",
          "type": "uint256",
          "internalType": "uint256"
        }
      ],
      "outputs": [],
      "stateMutability": "nonpayable"
    },
    {
      "type": "function",
      "name": "pricing",
      "inputs": [
        {
          "name": "",
          "type": "address",
          "internalType": "address"
        }
      ],
      "outputs": [
        {
          "name": "",
          "type": "uint256",
          "internalType": "uint256"
        }
      ],
      "stateMutability": "view"
    },
    {
      "type": "function",
      "name": "register",
      "inputs": [
        {
          "name": "price",
          "type": "uint256",
          "internalType": "uint256"
        }
      ],
      "outputs": [],
      "stateMutability": "nonpayable"
    },
    {
      "type": "function",
      "name": "totalChannels",
      "inputs": [],
      "outputs": [
        {
          "name": "",
          "type": "uint256",
          "internalType": "uint256"
        }
      ],
      "stateMutability": "view"
    },
    {
      "type": "event",
      "name": "channelCreated",
      "inputs": [
        {
          "name": "channelId",
          "type": "uint256",
          "indexed": true,
          "internalType": "uint256"
        },
        {
          "name": "channelAddress",
          "type": "address",
          "indexed": false,
          "internalType": "address"
        },
        {
          "name": "sender",
          "type": "address",
          "indexed": true,
          "internalType": "address"
        },
        {
          "name": "recipient",
          "type": "address",
          "indexed": true,
          "internalType": "address"
        },
        {
          "name": "duration",
          "type": "uint256",
          "indexed": false,
          "internalType": "uint256"
        },
        {
          "name": "tokenAddress",
          "type": "address",
          "indexed": false,
          "internalType": "address"
        },
        {
          "name": "amount",
          "type": "uint256",
          "indexed": false,
          "internalType": "uint256"
        },
        {
          "name": "price",
          "type": "uint256",
          "indexed": false,
          "internalType": "uint256"
        },
        {
          "name": "timestamp",
          "type": "uint256",
          "indexed": false,
          "internalType": "uint256"
        }
      ],
      "anonymous": false
    },
    {
      "type": "event",
      "name": "pricingRegistered",
      "inputs": [
        {
          "name": "recipient",
          "type": "address",
          "indexed": true,
          "internalType": "address"
        },
        {
          "name": "price",
          "type": "uint256",
          "indexed": false,
          "internalType": "uint256"
        },
        {
          "name": "timestamp",
          "type": "uint256",
          "indexed": false,
          "internalType": "uint256"
        }
      ],
      "anonymous": false
    }
  ],
  "bytecode": {
    "object": "0x6080604052348015600f57600080fd5b50604051601a90605a565b604051809103906000f0801580156035573d6000803e3d6000fd5b50600380546001600160a01b0319166001600160a01b03929092169190911790556067565b610ebb8061075683390190565b6106e0806100766000396000f3fe608060405234801561001057600080fd5b50600436106100575760003560e01c8063735d5fbc1461005c57806375c94d9a146100715780637734a9f6146100a4578063e5949b5d146100ad578063f207564e146100ee575b600080fd5b61006f61006a36600461040e565b610101565b005b61009161007f366004610452565b60006020819052908152604090205481565b6040519081526020015b60405180910390f35b61009160025481565b6100d66100bb366004610474565b6001602052600090815260409020546001600160a01b031681565b6040516001600160a01b03909116815260200161009b565b61006f6100fc366004610474565b610393565b6001600160a01b0384166000908152602081905260408120546002805491926101298361048d565b90915550506040516323b872dd60e01b8152336004820181905230602483015260448201849052906001600160a01b038516906323b872dd906064016020604051808303816000875af1158015610184573d6000803e3d6000fd5b505050506040513d601f19601f820116820180604052508101906101a891906104b4565b506003546040516000916001600160a01b0316906101c5906103e5565b6001600160a01b039091168152602001604051809103906000f0801580156101f1573d6000803e3d6000fd5b5060405163095ea7b360e01b81526001600160a01b03808316600483015260248201879052919250829187169063095ea7b3906044016020604051808303816000875af1158015610246573d6000803e3d6000fd5b505050506040513d601f19601f8201168201806040525081019061026a91906104b4565b506002546040516392aa5bcb60e01b81526001600160a01b038a811660048301528581166024830152604482018a905288811660648301526084820188905260a4820187905260c4820192909252908216906392aa5bcb9060e401600060405180830381600087803b1580156102df57600080fd5b505af11580156102f3573d6000803e3d6000fd5b50506002805460009081526001602090815260409182902080546001600160a01b038881166001600160a01b03199092168217909255935483519485529184018d90528b811684840152606084018b9052608084018a90524260a085015291518d831695509188169350917fa3162614b8dec8594972fac85313f8db191ab428989960edd147302037f1f2b3919081900360c00190a45050505050505050565b33600081815260208181526040918290208490558151848152429181019190915282917f6c9017fcef80cb6e3717ee3f157d2c83905cf6a49b74fe1ec061b030ca2af1c7910160405180910390a25050565b6101d4806104d783390190565b80356001600160a01b038116811461040957600080fd5b919050565b6000806000806080858703121561042457600080fd5b61042d856103f2565b935060208501359250610442604086016103f2565b9396929550929360600135925050565b60006020828403121561046457600080fd5b61046d826103f2565b9392505050565b60006020828403121561048657600080fd5b5035919050565b6000600182016104ad57634e487b7160e01b600052601160045260246000fd5b5060010190565b6000602082840312156104c657600080fd5b8151801515811461046d57600080fdfe60a060405234801561001057600080fd5b506040516101d43803806101d483398101604081905261002f9161009a565b6001600160a01b0381166100895760405162461bcd60e51b815260206004820152601e60248201527f496e76616c696420696d706c656d656e746174696f6e20616464726573730000604482015260640160405180910390fd5b6001600160a01b03166080526100ca565b6000602082840312156100ac57600080fd5b81516001600160a01b03811681146100c357600080fd5b9392505050565b60805160ec6100e860003960008181602001526055015260ec6000f3fe608060405260043610601c5760003560e01c80635c60da1b146045575b60437f00000000000000000000000000000000000000000000000000000000000000006093565b005b348015605057600080fd5b5060777f000000000000000000000000000000000000000000000000000000000000000081565b6040516001600160a01b03909116815260200160405180910390f35b3660008037600080366000845af43d6000803e80801560b1573d6000f35b3d6000fdfea2646970667358221220731ac5c7325b40f28df5151baa1d463d47d000c84ed55addb0ddc1c276b5faa464736f6c634300081a0033a2646970667358221220ee798f45ffed5d107ee1f2425cd35b608c75bd6c5482d4132ab68891f451fb0264736f6c634300081a00336080604052348015600f57600080fd5b50610e9c8061001f6000396000f3fe608060405234801561001057600080fd5b50600436106101005760003560e01c8063a035b1fe11610097578063dd00a9dc11610066578063dd00a9dc14610200578063e2cee54414610213578063fa5408011461021c578063fc0c546a1461022f57600080fd5b8063a035b1fe146101aa578063a7bb5803146101b3578063b69ef8a8146101e4578063b6b55f25146101ed57600080fd5b806367e404ce116100d357806367e404ce1461015e57806392aa5bcb146101715780639714378c1461018457806397aba7f91461019757600080fd5b80630e1da6c31461010557806312065fe01461010f5780634665096d1461012a57806366d003ac14610133575b600080fd5b61010d610242565b005b610117610393565b6040519081526020015b60405180910390f35b61011760045481565b600354610146906001600160a01b031681565b6040516001600160a01b039091168152602001610121565b600254610146906001600160a01b031681565b61010d61017f366004610bd6565b610405565b61010d610192366004610c3e565b6105c3565b6101466101a5366004610cfc565b61064b565b61011760075481565b6101c66101c1366004610d43565b6106cb565b60408051938452602084019290925260ff1690820152606001610121565b61011760055481565b61010d6101fb366004610c3e565b61073f565b61010d61020e366004610d80565b610894565b61011760015481565b61011761022a366004610c3e565b610b67565b600654610146906001600160a01b031681565b60045442101561025157600080fd5b6006546003546040516370a0823160e01b81523060048201526001600160a01b039283169263a9059cbb92169083906370a0823190602401602060405180830381865afa1580156102a6573d6000803e3d6000fd5b505050506040513d601f19601f820116820180604052508101906102ca9190610e03565b6040516001600160e01b031960e085901b1681526001600160a01b03909216600483015260248201526044016020604051808303816000875af1158015610315573d6000803e3d6000fd5b505050506040513d601f19601f820116820180604052508101906103399190610e1c565b50600154600254600354604080519384526001600160a01b039283166020850152911682820152426060830152517f213a4d3f1e64b784b982ccc4359a57991822e3f712ce38c1a5068b5508d0ac569181900360800190a1565b6006546040516370a0823160e01b81523060048201526000916001600160a01b0316906370a0823190602401602060405180830381865afa1580156103dc573d6000803e3d6000fd5b505050506040513d601f19601f820116820180604052508101906104009190610e03565b905090565b60005460ff161561045d5760405162461bcd60e51b815260206004820152601b60248201527f4368616e6e656c20616c726561647920696e697469616c697a6564000000000060448201526064015b60405180910390fd5b600280546001600160a01b038089166001600160a01b03199283161790925560038054928a16929091169190911790556104978542610e45565b6004908155600680546001600160a01b0319166001600160a01b0387169081179091556040516323b872dd60e01b8152339281019290925230602483015260448201859052906323b872dd906064016020604051808303816000875af1158015610505573d6000803e3d6000fd5b505050506040513d601f19601f820116820180604052508101906105299190610e1c565b506005839055600782905560018181556000805460ff19169091178155600254600354600454604080518681526001600160a01b039485166020820152939092169183019190915260608201526080810185905260a0810184905260c08101919091527f655f8515373f89502c525d938b13cc7ca710e30ff850db18bec02290fe49a1279060e0015b60405180910390a150505050505050565b6002546001600160a01b031633146105da57600080fd5b60045481116105e857600080fd5b6004819055600154600254600354604080519384526001600160a01b039283166020850152911690820152606081018290527f0c8645c3473b31222b51b16e03e66e919a6b6ec585b08480a717ec6f312c7ee3906080015b60405180910390a150565b60008060008061065a856106cb565b6040805160008152602081018083528b905260ff8316918101919091526060810184905260808101839052929550909350915060019060a0016020604051602081039080840390855afa1580156106b5573d6000803e3d6000fd5b5050506020604051035193505050505b92915050565b600080600083516041146107215760405162461bcd60e51b815260206004820152601860248201527f696e76616c6964207369676e6174757265206c656e67746800000000000000006044820152606401610454565b50505060208101516040820151606090920151909260009190911a90565b6002546001600160a01b031633146107995760405162461bcd60e51b815260206004820152601760248201527f4f6e6c792073656e6465722063616e206465706f7369740000000000000000006044820152606401610454565b6006546002546040516323b872dd60e01b81526001600160a01b039182166004820152306024820152604481018490529116906323b872dd906064016020604051808303816000875af11580156107f4573d6000803e3d6000fd5b505050506040513d601f19601f820116820180604052508101906108189190610e1c565b50806005600082825461082b9190610e45565b9091555050600154600254600354600554604080519485526001600160a01b03938416602086015292909116918301919091526060820183905260808201527f94fb5f29cabb061b79ee0a3255c1dbde1a687bae78107735c17232fdc588e66b9060a001610640565b6003546001600160a01b031633146108ab57600080fd5b6040516bffffffffffffffffffffffff193060601b166020820152603481018590526054810184905260009060740160405160208183030381529060405280519060200120905060006108fd82610b67565b600254604080516020601f88018190048102820181019092528681529293506001600160a01b039091169161094f91849190889088908190840183828082843760009201919091525061064b92505050565b6001600160a01b0316146109995760405162461bcd60e51b8152602060048201526011602482015270496e76616c6964205369676e617475726560781b6044820152606401610454565b60065460035460405163a9059cbb60e01b81526001600160a01b0391821660048201526024810189905291169063a9059cbb906044016020604051808303816000875af11580156109ee573d6000803e3d6000fd5b505050506040513d601f19601f82011682018060405250810190610a129190610e1c565b506006546040516370a0823160e01b81523060048201526000916001600160a01b0316906370a0823190602401602060405180830381865afa158015610a5c573d6000803e3d6000fd5b505050506040513d601f19601f82011682018060405250810190610a809190610e03565b90508015610b035760065460025460405163a9059cbb60e01b81526001600160a01b0391821660048201526024810184905291169063a9059cbb906044016020604051808303816000875af1158015610add573d6000803e3d6000fd5b505050506040513d601f19601f82011682018060405250810190610b019190610e1c565b505b600154600254600354604080519384526001600160a01b0392831660208501529116908201524260608201526080810188905260a081018790527f6ba809a8ecd716c24d75a3232d9c16adb1dd7371ad89ea8461f44c0928eaab659060c0016105b2565b6040517f19457468657265756d205369676e6564204d6573736167653a0a3332000000006020820152603c8101829052600090605c01604051602081830303815290604052805190602001209050919050565b80356001600160a01b0381168114610bd157600080fd5b919050565b600080600080600080600060e0888a031215610bf157600080fd5b610bfa88610bba565b9650610c0860208901610bba565b955060408801359450610c1d60608901610bba565b9699959850939660808101359560a0820135955060c0909101359350915050565b600060208284031215610c5057600080fd5b5035919050565b634e487b7160e01b600052604160045260246000fd5b600082601f830112610c7e57600080fd5b813567ffffffffffffffff811115610c9857610c98610c57565b604051601f8201601f19908116603f0116810167ffffffffffffffff81118282101715610cc757610cc7610c57565b604052818152838201602001851015610cdf57600080fd5b816020850160208301376000918101602001919091529392505050565b60008060408385031215610d0f57600080fd5b82359150602083013567ffffffffffffffff811115610d2d57600080fd5b610d3985828601610c6d565b9150509250929050565b600060208284031215610d5557600080fd5b813567ffffffffffffffff811115610d6c57600080fd5b610d7884828501610c6d565b949350505050565b60008060008060608587031215610d9657600080fd5b8435935060208501359250604085013567ffffffffffffffff811115610dbb57600080fd5b8501601f81018713610dcc57600080fd5b803567ffffffffffffffff811115610de357600080fd5b876020828401011115610df557600080fd5b949793965060200194505050565b600060208284031215610e1557600080fd5b5051919050565b600060208284031215610e2e57600080fd5b81518015158114610e3e57600080fd5b9392505050565b808201808211156106c557634e487b7160e01b600052601160045260246000fdfea2646970667358221220fcfbd718a06862537b65f9640ca7b5bd5947f07e393dae7e55d69805ff91e15664736f6c634300081a0033",
    "linkReferences": {}
  },
  "methodIdentifiers": {
    "channels(uint256)": "e5949b5d",
    "createChannel(address,uint256,address,uint256)": "735d5fbc",
    "pricing(address)": "75c94d9a",
    "register(uint256)": "f207564e",
    "totalChannels()": "7734a9f6"
  },
  "id": 0
}